{
  "_format": "hh-sol-artifact-1",
  "contractName": "CompliantERC20",
  "sourceName": "contracts/CompliantERC20.sol",
  "abi": [
    {
      "inputs": [
        {
          "internalType": "address",
          "name": "_identityAddr",
          "type": "address"
        },
        {
          "internalType": "address",
          "name": "_rulesAddr",
          "type": "address"
        },
        {
          "internalType": "string",
          "name": "_name",
          "type": "string"
        },
        {
          "internalType": "string",
          "name": "_symbol",
          "type": "string"
        }
      ],
      "stateMutability": "nonpayable",
      "type": "constructor"
    },
    {
      "inputs": [],
      "name": "ECDSAInvalidSignature",
      "type": "error"
    },
    {
      "inputs": [
        {
          "internalType": "uint256",
          "name": "length",
          "type": "uint256"
        }
      ],
      "name": "ECDSAInvalidSignatureLength",
      "type": "error"
    },
    {
      "inputs": [
        {
          "internalType": "bytes32",
          "name": "s",
          "type": "bytes32"
        }
      ],
      "name": "ECDSAInvalidSignatureS",
      "type": "error"
    },
    {
      "inputs": [],
      "name": "InvalidShortString",
      "type": "error"
    },
    {
      "inputs": [
        {
          "internalType": "address",
          "name": "owner",
          "type": "address"
        }
      ],
      "name": "OwnableInvalidOwner",
      "type": "error"
    },
    {
      "inputs": [
        {
          "internalType": "address",
          "name": "account",
          "type": "address"
        }
      ],
      "name": "OwnableUnauthorizedAccount",
      "type": "error"
    },
    {
      "inputs": [
        {
          "internalType": "string",
          "name": "str",
          "type": "string"
        }
      ],
      "name": "StringTooLong",
      "type": "error"
    },
    {
      "anonymous": false,
      "inputs": [
        {
          "indexed": true,
          "internalType": "address",
          "name": "owner",
          "type": "address"
        },
        {
          "indexed": true,
          "internalType": "address",
          "name": "spender",
          "type": "address"
        }
      ],
      "name": "Approval",
      "type": "event"
    },
    {
      "anonymous": false,
      "inputs": [],
      "name": "EIP712DomainChanged",
      "type": "event"
    },
    {
      "anonymous": false,
      "inputs": [
        {
          "indexed": true,
          "internalType": "address",
          "name": "to",
          "type": "address"
        },
        {
          "indexed": false,
          "internalType": "uint64",
          "name": "amount",
          "type": "uint64"
        }
      ],
      "name": "Mint",
      "type": "event"
    },
    {
      "anonymous": false,
      "inputs": [
        {
          "indexed": true,
          "internalType": "address",
          "name": "previousOwner",
          "type": "address"
        },
        {
          "indexed": true,
          "internalType": "address",
          "name": "newOwner",
          "type": "address"
        }
      ],
      "name": "OwnershipTransferStarted",
      "type": "event"
    },
    {
      "anonymous": false,
      "inputs": [
        {
          "indexed": true,
          "internalType": "address",
          "name": "previousOwner",
          "type": "address"
        },
        {
          "indexed": true,
          "internalType": "address",
          "name": "newOwner",
          "type": "address"
        }
      ],
      "name": "OwnershipTransferred",
      "type": "event"
    },
    {
      "anonymous": false,
      "inputs": [
        {
          "indexed": true,
          "internalType": "address",
          "name": "from",
          "type": "address"
        },
        {
          "indexed": true,
          "internalType": "address",
          "name": "to",
          "type": "address"
        }
      ],
      "name": "Transfer",
      "type": "event"
    },
    {
      "inputs": [],
      "name": "acceptOwnership",
      "outputs": [],
      "stateMutability": "nonpayable",
      "type": "function"
    },
    {
      "inputs": [
        {
          "internalType": "address",
          "name": "owner",
          "type": "address"
        },
        {
          "internalType": "address",
          "name": "spender",
          "type": "address"
        },
        {
          "internalType": "bytes32",
          "name": "publicKey",
          "type": "bytes32"
        },
        {
          "internalType": "bytes",
          "name": "signature",
          "type": "bytes"
        }
      ],
      "name": "allowance",
      "outputs": [
        {
          "internalType": "bytes",
          "name": "",
          "type": "bytes"
        }
      ],
      "stateMutability": "view",
      "type": "function"
    },
    {
      "inputs": [
        {
          "internalType": "address",
          "name": "spender",
          "type": "address"
        },
        {
          "internalType": "bytes",
          "name": "encryptedAmount",
          "type": "bytes"
        }
      ],
      "name": "approve",
      "outputs": [
        {
          "internalType": "bool",
          "name": "",
          "type": "bool"
        }
      ],
      "stateMutability": "nonpayable",
      "type": "function"
    },
    {
      "inputs": [
        {
          "internalType": "address",
          "name": "spender",
          "type": "address"
        },
        {
          "internalType": "euint64",
          "name": "amount",
          "type": "uint256"
        }
      ],
      "name": "approve",
      "outputs": [
        {
          "internalType": "bool",
          "name": "",
          "type": "bool"
        }
      ],
      "stateMutability": "nonpayable",
      "type": "function"
    },
    {
      "inputs": [
        {
          "internalType": "address",
          "name": "wallet",
          "type": "address"
        },
        {
          "internalType": "bytes32",
          "name": "publicKey",
          "type": "bytes32"
        },
        {
          "internalType": "bytes",
          "name": "signature",
          "type": "bytes"
        }
      ],
      "name": "balanceOf",
      "outputs": [
        {
          "internalType": "bytes",
          "name": "",
          "type": "bytes"
        }
      ],
      "stateMutability": "view",
      "type": "function"
    },
    {
      "inputs": [],
      "name": "balanceOfMe",
      "outputs": [
        {
          "internalType": "euint64",
          "name": "",
          "type": "uint256"
        }
      ],
      "stateMutability": "view",
      "type": "function"
    },
    {
      "inputs": [],
      "name": "decimals",
      "outputs": [
        {
          "internalType": "uint8",
          "name": "",
          "type": "uint8"
        }
      ],
      "stateMutability": "view",
      "type": "function"
    },
    {
      "inputs": [],
      "name": "eip712Domain",
      "outputs": [
        {
          "internalType": "bytes1",
          "name": "fields",
          "type": "bytes1"
        },
        {
          "internalType": "string",
          "name": "name",
          "type": "string"
        },
        {
          "internalType": "string",
          "name": "version",
          "type": "string"
        },
        {
          "internalType": "uint256",
          "name": "chainId",
          "type": "uint256"
        },
        {
          "internalType": "address",
          "name": "verifyingContract",
          "type": "address"
        },
        {
          "internalType": "bytes32",
          "name": "salt",
          "type": "bytes32"
        },
        {
          "internalType": "uint256[]",
          "name": "extensions",
          "type": "uint256[]"
        }
      ],
      "stateMutability": "view",
      "type": "function"
    },
    {
      "inputs": [
        {
          "internalType": "address",
          "name": "wallet",
          "type": "address"
        },
        {
          "internalType": "string",
          "name": "identifier",
          "type": "string"
        }
      ],
      "name": "getIdentifier",
      "outputs": [
        {
          "internalType": "euint64",
          "name": "",
          "type": "uint256"
        }
      ],
      "stateMutability": "view",
      "type": "function"
    },
    {
      "inputs": [],
      "name": "identifiers",
      "outputs": [
        {
          "internalType": "string[]",
          "name": "",
          "type": "string[]"
        }
      ],
      "stateMutability": "view",
      "type": "function"
    },
    {
      "inputs": [
        {
          "internalType": "uint64",
          "name": "mintedAmount",
          "type": "uint64"
        }
      ],
      "name": "mint",
      "outputs": [],
      "stateMutability": "nonpayable",
      "type": "function"
    },
    {
      "inputs": [],
      "name": "name",
      "outputs": [
        {
          "internalType": "string",
          "name": "",
          "type": "string"
        }
      ],
      "stateMutability": "view",
      "type": "function"
    },
    {
      "inputs": [],
      "name": "owner",
      "outputs": [
        {
          "internalType": "address",
          "name": "",
          "type": "address"
        }
      ],
      "stateMutability": "view",
      "type": "function"
    },
    {
      "inputs": [],
      "name": "pendingOwner",
      "outputs": [
        {
          "internalType": "address",
          "name": "",
          "type": "address"
        }
      ],
      "stateMutability": "view",
      "type": "function"
    },
    {
      "inputs": [],
      "name": "renounceOwnership",
      "outputs": [],
      "stateMutability": "nonpayable",
      "type": "function"
    },
    {
      "inputs": [],
      "name": "symbol",
      "outputs": [
        {
          "internalType": "string",
          "name": "",
          "type": "string"
        }
      ],
      "stateMutability": "view",
      "type": "function"
    },
    {
      "inputs": [],
      "name": "totalSupply",
      "outputs": [
        {
          "internalType": "uint64",
          "name": "",
          "type": "uint64"
        }
      ],
      "stateMutability": "view",
      "type": "function"
    },
    {
      "inputs": [
        {
          "internalType": "address",
          "name": "to",
          "type": "address"
        },
        {
          "internalType": "bytes",
          "name": "encryptedAmount",
          "type": "bytes"
        }
      ],
      "name": "transfer",
      "outputs": [
        {
          "internalType": "bool",
          "name": "",
          "type": "bool"
        }
      ],
      "stateMutability": "nonpayable",
      "type": "function"
    },
    {
      "inputs": [
        {
          "internalType": "address",
          "name": "to",
          "type": "address"
        },
        {
          "internalType": "euint64",
          "name": "amount",
          "type": "uint256"
        }
      ],
      "name": "transfer",
      "outputs": [
        {
          "internalType": "bool",
          "name": "",
          "type": "bool"
        }
      ],
      "stateMutability": "nonpayable",
      "type": "function"
    },
    {
      "inputs": [
        {
          "internalType": "address",
          "name": "from",
          "type": "address"
        },
        {
          "internalType": "address",
          "name": "to",
          "type": "address"
        },
        {
          "internalType": "euint64",
          "name": "amount",
          "type": "uint256"
        }
      ],
      "name": "transferFrom",
      "outputs": [
        {
          "internalType": "bool",
          "name": "",
          "type": "bool"
        }
      ],
      "stateMutability": "nonpayable",
      "type": "function"
    },
    {
      "inputs": [
        {
          "internalType": "address",
          "name": "from",
          "type": "address"
        },
        {
          "internalType": "address",
          "name": "to",
          "type": "address"
        },
        {
          "internalType": "bytes",
          "name": "encryptedAmount",
          "type": "bytes"
        }
      ],
      "name": "transferFrom",
      "outputs": [
        {
          "internalType": "bool",
          "name": "",
          "type": "bool"
        }
      ],
      "stateMutability": "nonpayable",
      "type": "function"
    },
    {
      "inputs": [
        {
          "internalType": "address",
          "name": "newOwner",
          "type": "address"
        }
      ],
      "name": "transferOwnership",
      "outputs": [],
      "stateMutability": "nonpayable",
      "type": "function"
    }
  ],
  "bytecode": "0x6101606040523480156200001257600080fd5b5060405162004621380380620046218339818101604052810190620000389190620006b3565b8181336040518060400160405280601381526020017f417574686f72697a6174696f6e20746f6b656e000000000000000000000000008152506040518060400160405280600181526020017f3100000000000000000000000000000000000000000000000000000000000000815250620000bd6000836200029060201b90919060201c565b6101208181525050620000db6001826200029060201b90919060201c565b6101408181525050818051906020012060e08181525050808051906020012061010081815250504660a081815250506200011a620002e860201b60201c565b608081815250503073ffffffffffffffffffffffffffffffffffffffff1660c08173ffffffffffffffffffffffffffffffffffffffff16815250505050600073ffffffffffffffffffffffffffffffffffffffff168173ffffffffffffffffffffffffffffffffffffffff1603620001cc5760006040517f1e4fbdf7000000000000000000000000000000000000000000000000000000008152600401620001c3919062000774565b60405180910390fd5b620001dd816200034560201b60201c565b508160049081620001ef9190620009dc565b508060059081620002019190620009dc565b50505083600860006101000a81548173ffffffffffffffffffffffffffffffffffffffff021916908373ffffffffffffffffffffffffffffffffffffffff16021790555082600960006101000a81548173ffffffffffffffffffffffffffffffffffffffff021916908373ffffffffffffffffffffffffffffffffffffffff1602179055505050505062000c64565b6000602083511015620002b657620002ae836200037e60201b60201c565b9050620002e2565b82620002c883620003eb60201b60201c565b6000019081620002d99190620009dc565b5060ff60001b90505b92915050565b60007f8b73c3c69bb8fe3d512ecc4cf759cc79239f7b179b0ffacaa9a75d522b39400f60e0516101005146306040516020016200032a95949392919062000aef565b60405160208183030381529060405280519060200120905090565b600360006101000a81549073ffffffffffffffffffffffffffffffffffffffff02191690556200037b81620003f560201b60201c565b50565b600080829050601f81511115620003ce57826040517f305a27a9000000000000000000000000000000000000000000000000000000008152600401620003c5919062000b9e565b60405180910390fd5b805181620003dc9062000bf4565b60001c1760001b915050919050565b6000819050919050565b6000600260009054906101000a900473ffffffffffffffffffffffffffffffffffffffff16905081600260006101000a81548173ffffffffffffffffffffffffffffffffffffffff021916908373ffffffffffffffffffffffffffffffffffffffff1602179055508173ffffffffffffffffffffffffffffffffffffffff168173ffffffffffffffffffffffffffffffffffffffff167f8be0079c531659141344cd1fd0a4f28419497f9722a3daafe3b4186f6b6457e060405160405180910390a35050565b6000604051905090565b600080fd5b600080fd5b600073ffffffffffffffffffffffffffffffffffffffff82169050919050565b6000620004fc82620004cf565b9050919050565b6200050e81620004ef565b81146200051a57600080fd5b50565b6000815190506200052e8162000503565b92915050565b600080fd5b600080fd5b6000601f19601f8301169050919050565b7f4e487b7100000000000000000000000000000000000000000000000000000000600052604160045260246000fd5b62000589826200053e565b810181811067ffffffffffffffff82111715620005ab57620005aa6200054f565b5b80604052505050565b6000620005c0620004bb565b9050620005ce82826200057e565b919050565b600067ffffffffffffffff821115620005f157620005f06200054f565b5b620005fc826200053e565b9050602081019050919050565b60005b83811015620006295780820151818401526020810190506200060c565b60008484015250505050565b60006200064c6200064684620005d3565b620005b4565b9050828152602081018484840111156200066b576200066a62000539565b5b6200067884828562000609565b509392505050565b600082601f83011262000698576200069762000534565b5b8151620006aa84826020860162000635565b91505092915050565b60008060008060808587031215620006d057620006cf620004c5565b5b6000620006e0878288016200051d565b9450506020620006f3878288016200051d565b935050604085015167ffffffffffffffff811115620007175762000716620004ca565b5b620007258782880162000680565b925050606085015167ffffffffffffffff811115620007495762000748620004ca565b5b620007578782880162000680565b91505092959194509250565b6200076e81620004ef565b82525050565b60006020820190506200078b600083018462000763565b92915050565b600081519050919050565b7f4e487b7100000000000000000000000000000000000000000000000000000000600052602260045260246000fd5b60006002820490506001821680620007e457607f821691505b602082108103620007fa57620007f96200079c565b5b50919050565b60008190508160005260206000209050919050565b60006020601f8301049050919050565b600082821b905092915050565b600060088302620008647fffffffffffffffffffffffffffffffffffffffffffffffffffffffffffffffff8262000825565b62000870868362000825565b95508019841693508086168417925050509392505050565b6000819050919050565b6000819050919050565b6000620008bd620008b7620008b18462000888565b62000892565b62000888565b9050919050565b6000819050919050565b620008d9836200089c565b620008f1620008e882620008c4565b84845462000832565b825550505050565b600090565b62000908620008f9565b62000915818484620008ce565b505050565b5b818110156200093d5762000931600082620008fe565b6001810190506200091b565b5050565b601f8211156200098c57620009568162000800565b620009618462000815565b8101602085101562000971578190505b62000989620009808562000815565b8301826200091a565b50505b505050565b600082821c905092915050565b6000620009b16000198460080262000991565b1980831691505092915050565b6000620009cc83836200099e565b9150826002028217905092915050565b620009e78262000791565b67ffffffffffffffff81111562000a035762000a026200054f565b5b62000a0f8254620007cb565b62000a1c82828562000941565b600060209050601f83116001811462000a54576000841562000a3f578287015190505b62000a4b8582620009be565b86555062000abb565b601f19841662000a648662000800565b60005b8281101562000a8e5784890151825560018201915060208501945060208101905062000a67565b8683101562000aae578489015162000aaa601f8916826200099e565b8355505b6001600288020188555050505b505050505050565b6000819050919050565b62000ad88162000ac3565b82525050565b62000ae98162000888565b82525050565b600060a08201905062000b06600083018862000acd565b62000b15602083018762000acd565b62000b24604083018662000acd565b62000b33606083018562000ade565b62000b42608083018462000763565b9695505050505050565b600082825260208201905092915050565b600062000b6a8262000791565b62000b76818562000b4c565b935062000b8881856020860162000609565b62000b93816200053e565b840191505092915050565b6000602082019050818103600083015262000bba818462000b5d565b905092915050565b600081519050919050565b6000819050602082019050919050565b600062000beb825162000ac3565b80915050919050565b600062000c018262000bc2565b8262000c0d8462000bcd565b905062000c1a8162000bdd565b9250602082101562000c5d5762000c587fffffffffffffffffffffffffffffffffffffffffffffffffffffffffffffffff8360200360080262000825565b831692505b5050919050565b60805160a05160c05160e05161010051610120516101405161396262000cbf6000396000611824015260006117e9015260006122fc015260006122db015260006119f301526000611a4901526000611a7201526139626000f3fe608060405234801561001057600080fd5b50600436106101425760003560e01c8063715018a6116100b857806395cf57b01161007c57806395cf57b01461038357806395d89b41146103b3578063a9059cbb146103d1578063e30c397814610401578063f2fde38b1461041f578063fb9d09c81461043b57610142565b8063715018a61461030f57806379ba50971461031957806384b0196e146103235780638da5cb5b14610347578063913f6ad51461036557610142565b806323b872dd1161010a57806323b872dd146102015780632972351114610231578063313ce5671461026157806332cbfb071461027f57806349972663146102af5780636934c747146102df57610142565b8063014647f41461014757806306fdde0314610177578063095ea7b3146101955780630eb2b9c9146101c557806318160ddd146101e3575b600080fd5b610161600480360381019061015c9190612681565b610457565b60405161016e91906126fc565b60405180910390f35b61017f6104bb565b60405161018c91906127a7565b60405180910390f35b6101af60048036038101906101aa91906127ff565b61054d565b6040516101bc91906126fc565b60405180910390f35b6101cd6105c3565b6040516101da919061287a565b60405180910390f35b6101eb61060a565b6040516101f891906128b8565b60405180910390f35b61021b600480360381019061021691906128d3565b610628565b60405161022891906126fc565b60405180910390f35b61024b60048036038101906102469190612681565b610656565b60405161025891906126fc565b60405180910390f35b6102696106ba565b6040516102769190612942565b60405180910390f35b61029960048036038101906102949190612993565b6106bf565b6040516102a69190612a70565b60405180910390f35b6102c960048036038101906102c49190612a92565b610868565b6040516102d691906126fc565b60405180910390f35b6102f960048036038101906102f49190612b06565b6108ce565b6040516103069190612a70565b60405180910390f35b610317610b28565b005b610321610b3c565b005b61032b610bcb565b60405161033e9796959493929190612ca0565b60405180910390f35b61034f610c75565b60405161035c9190612d24565b60405180910390f35b61036d610c9f565b60405161037a9190612e4b565b60405180910390f35b61039d60048036038101906103989190612ec3565b610d3c565b6040516103aa919061287a565b60405180910390f35b6103bb610e77565b6040516103c891906127a7565b60405180910390f35b6103eb60048036038101906103e691906127ff565b610f09565b6040516103f891906126fc565b60405180910390f35b610409610f6e565b6040516104169190612d24565b60405180910390f35b61043960048036038101906104349190612f23565b610f98565b005b61045560048036038101906104509190612f7c565b611045565b005b60006104af846104aa85858080601f016020809104026020016040519081016040528093929190818152602001838380828437600081840152601f19601f82011690508083019250505050505050611189565b61054d565b50600190509392505050565b6060600480546104ca90612fd8565b80601f01602080910402602001604051908101604052809291908181526020018280546104f690612fd8565b80156105435780601f1061051857610100808354040283529160200191610543565b820191906000526020600020905b81548152906001019060200180831161052657829003601f168201915b5050505050905090565b60008033905061055e81858561119d565b8373ffffffffffffffffffffffffffffffffffffffff168173ffffffffffffffffffffffffffffffffffffffff167ff37f546c25e850257cc0c94f92bec94a17e2f0e884ddda268a25d8144b70eb6a60405160405180910390a3600191505092915050565b6000600660003373ffffffffffffffffffffffffffffffffffffffff1673ffffffffffffffffffffffffffffffffffffffff16815260200190815260200160002054905090565b6000600360149054906101000a900467ffffffffffffffff16905090565b600080339050600061063b868386611223565b9050610649868686846112c7565b6001925050509392505050565b60006106ae846106a985858080601f016020809104026020016040519081016040528093929190818152602001838380828437600081840152601f19601f82011690508083019250505050505050611189565b610f09565b50600190509392505050565b600081565b60608383838080601f016020809104026020016040519081016040528093929190818152602001838380828437600081840152601f19601f82011690508083019250505050505050600061075a7f051d137ae0e1fae6e3b6559fed4442b35a85a9a39789838ad5c9ea05e7da2dce8460405160200161073f929190613009565b60405160208183030381529060405280519060200120611541565b90506000610768828461155b565b90503373ffffffffffffffffffffffffffffffffffffffff168173ffffffffffffffffffffffffffffffffffffffff16146107d8576040517f08c379a00000000000000000000000000000000000000000000000000000000081526004016107cf906130a4565b60405180910390fd5b3373ffffffffffffffffffffffffffffffffffffffff168a73ffffffffffffffffffffffffffffffffffffffff16148061083d57503373ffffffffffffffffffffffffffffffffffffffff168973ffffffffffffffffffffffffffffffffffffffff16145b61084657600080fd5b6108596108538b8b611587565b896116aa565b94505050505095945050505050565b60006108c185856108bc86868080601f016020809104026020016040519081016040528093929190818152602001838380828437600081840152601f19601f82011690508083019250505050505050611189565b610628565b5060019050949350505050565b60608383838080601f016020809104026020016040519081016040528093929190818152602001838380828437600081840152601f19601f8201169050808301925050505050505060006109697f051d137ae0e1fae6e3b6559fed4442b35a85a9a39789838ad5c9ea05e7da2dce8460405160200161094e929190613009565b60405160208183030381529060405280519060200120611541565b90506000610977828461155b565b90503373ffffffffffffffffffffffffffffffffffffffff168173ffffffffffffffffffffffffffffffffffffffff16146109e7576040517f08c379a00000000000000000000000000000000000000000000000000000000081526004016109de906130a4565b60405180910390fd5b3373ffffffffffffffffffffffffffffffffffffffff168973ffffffffffffffffffffffffffffffffffffffff1603610a6c57610a65600660003373ffffffffffffffffffffffffffffffffffffffff1673ffffffffffffffffffffffffffffffffffffffff168152602001908152602001600020548960006116be565b9450610b1c565b6000610ab6600660008c73ffffffffffffffffffffffffffffffffffffffff1673ffffffffffffffffffffffffffffffffffffffff168152602001908152602001600020546116ff565b610ac957610ac4600061170c565b610b0a565b600660008b73ffffffffffffffffffffffffffffffffffffffff1673ffffffffffffffffffffffffffffffffffffffff168152602001908152602001600020545b9050610b18818a60006116be565b9550505b50505050949350505050565b610b30611720565b610b3a60006117a7565b565b6000610b466117d8565b90508073ffffffffffffffffffffffffffffffffffffffff16610b67610f6e565b73ffffffffffffffffffffffffffffffffffffffff1614610bbf57806040517f118cdaa7000000000000000000000000000000000000000000000000000000008152600401610bb69190612d24565b60405180910390fd5b610bc8816117a7565b50565b600060608060008060006060610bdf6117e0565b610be761181b565b46306000801b600067ffffffffffffffff811115610c0857610c076130c4565b5b604051908082528060200260200182016040528015610c365781602001602082028036833780820191505090505b507f0f00000000000000000000000000000000000000000000000000000000000000959493929190965096509650965096509650965090919293949596565b6000600260009054906101000a900473ffffffffffffffffffffffffffffffffffffffff16905090565b6060600960009054906101000a900473ffffffffffffffffffffffffffffffffffffffff1673ffffffffffffffffffffffffffffffffffffffff1663a4770a886040518163ffffffff1660e01b8152600401600060405180830381865afa158015610d0e573d6000803e3d6000fd5b505050506040513d6000823e3d601f19601f82011682018060405250810190610d3791906132c6565b905090565b6000600960009054906101000a900473ffffffffffffffffffffffffffffffffffffffff1673ffffffffffffffffffffffffffffffffffffffff163373ffffffffffffffffffffffffffffffffffffffff1614610dce576040517f08c379a0000000000000000000000000000000000000000000000000000000008152600401610dc590613381565b60405180910390fd5b600860009054906101000a900473ffffffffffffffffffffffffffffffffffffffff1673ffffffffffffffffffffffffffffffffffffffff166395cf57b08585856040518463ffffffff1660e01b8152600401610e2d939291906133dd565b602060405180830381865afa158015610e4a573d6000803e3d6000fd5b505050506040513d601f19601f82011682018060405250810190610e6e9190613424565b90509392505050565b606060058054610e8690612fd8565b80601f0160208091040260200160405190810160405280929190818152602001828054610eb290612fd8565b8015610eff5780601f10610ed457610100808354040283529160200191610eff565b820191906000526020600020905b815481529060010190602001808311610ee257829003601f168201915b5050505050905090565b600080610f5583600660003373ffffffffffffffffffffffffffffffffffffffff1673ffffffffffffffffffffffffffffffffffffffff16815260200190815260200160002054611856565b9050610f63338585846112c7565b600191505092915050565b6000600360009054906101000a900473ffffffffffffffffffffffffffffffffffffffff16905090565b610fa0611720565b80600360006101000a81548173ffffffffffffffffffffffffffffffffffffffff021916908373ffffffffffffffffffffffffffffffffffffffff1602179055508073ffffffffffffffffffffffffffffffffffffffff16611000610c75565b73ffffffffffffffffffffffffffffffffffffffff167f38d16b8cac22d99fc7c124b9cd0de2d3fa1faef420bfe791d8c362d765e2270060405160405180910390a350565b61104d611720565b61109d6006600061105c610c75565b73ffffffffffffffffffffffffffffffffffffffff1673ffffffffffffffffffffffffffffffffffffffff16815260200190815260200160002054826118a0565b600660006110a9610c75565b73ffffffffffffffffffffffffffffffffffffffff1673ffffffffffffffffffffffffffffffffffffffff1681526020019081526020016000208190555080600360149054906101000a900467ffffffffffffffff166111099190613480565b600360146101000a81548167ffffffffffffffff021916908367ffffffffffffffff160217905550611139610c75565b73ffffffffffffffffffffffffffffffffffffffff167f9109de113672aaca72ede8bc906f7aafabee865311ac020fb15c71edf94a0a018260405161117e91906128b8565b60405180910390a250565b60006111968260056118da565b9050919050565b80600760008573ffffffffffffffffffffffffffffffffffffffff1673ffffffffffffffffffffffffffffffffffffffff16815260200190815260200160002060008473ffffffffffffffffffffffffffffffffffffffff1673ffffffffffffffffffffffffffffffffffffffff16815260200190815260200160002081905550505050565b6000806112308585611587565b9050600061123e8483611856565b9050600061128b85600660008a73ffffffffffffffffffffffffffffffffffffffff1673ffffffffffffffffffffffffffffffffffffffff16815260200190815260200160002054611856565b905060006112998284611988565b90506112b988886112b4846112ae898c61199c565b896119b0565b61119d565b809450505050509392505050565b60006112dd82846112d8600061170c565b6119b0565b90506000600960009054906101000a900473ffffffffffffffffffffffffffffffffffffffff1673ffffffffffffffffffffffffffffffffffffffff16631a695230866040518263ffffffff1660e01b815260040161133c9190612d24565b602060405180830381865afa158015611359573d6000803e3d6000fd5b505050506040513d601f19601f8201168201806040525081019061137d91906134e8565b9050611388816119c6565b6113c7576040517f08c379a00000000000000000000000000000000000000000000000000000000081526004016113be90613587565b60405180910390fd5b611410600660008773ffffffffffffffffffffffffffffffffffffffff1673ffffffffffffffffffffffffffffffffffffffff16815260200190815260200160002054836119db565b600660008773ffffffffffffffffffffffffffffffffffffffff1673ffffffffffffffffffffffffffffffffffffffff1681526020019081526020016000208190555061149c600660008873ffffffffffffffffffffffffffffffffffffffff1673ffffffffffffffffffffffffffffffffffffffff168152602001908152602001600020548361199c565b600660008873ffffffffffffffffffffffffffffffffffffffff1673ffffffffffffffffffffffffffffffffffffffff168152602001908152602001600020819055508473ffffffffffffffffffffffffffffffffffffffff168673ffffffffffffffffffffffffffffffffffffffff167f4853ae1b4d437c4255ac16cd3ceda3465975023f27cb141584cd9d44440fed8260405160405180910390a3505050505050565b600061155461154e6119ef565b83611aa6565b9050919050565b60008060008061156b8686611ae7565b92509250925061157b8282611b43565b82935050505092915050565b600061160e600760008573ffffffffffffffffffffffffffffffffffffffff1673ffffffffffffffffffffffffffffffffffffffff16815260200190815260200160002060008473ffffffffffffffffffffffffffffffffffffffff1673ffffffffffffffffffffffffffffffffffffffff168152602001908152602001600020546116ff565b1561169757600760008473ffffffffffffffffffffffffffffffffffffffff1673ffffffffffffffffffffffffffffffffffffffff16815260200190815260200160002060008373ffffffffffffffffffffffffffffffffffffffff1673ffffffffffffffffffffffffffffffffffffffff1681526020019081526020016000205490506116a4565b6116a1600061170c565b90505b92915050565b60606116b68383611ca7565b905092915050565b6060600084146116d9576116d28484611ca7565b90506116f8565b6116f56116ef8367ffffffffffffffff1661170c565b84611ca7565b90505b9392505050565b6000808214159050919050565b6000611719826005611d36565b9050919050565b6117286117d8565b73ffffffffffffffffffffffffffffffffffffffff16611746610c75565b73ffffffffffffffffffffffffffffffffffffffff16146117a5576117696117d8565b6040517f118cdaa700000000000000000000000000000000000000000000000000000000815260040161179c9190612d24565b60405180910390fd5b565b600360006101000a81549073ffffffffffffffffffffffffffffffffffffffff02191690556117d581611dc0565b50565b600033905090565b606061181660007f0000000000000000000000000000000000000000000000000000000000000000611e8690919063ffffffff16565b905090565b606061185160017f0000000000000000000000000000000000000000000000000000000000000000611e8690919063ffffffff16565b905090565b6000611861836116ff565b6118725761186f600061170c565b92505b61187b826116ff565b61188c57611889600061170c565b91505b61189883836000611f36565b905092915050565b60006118ab836116ff565b6118bc576118b9600061170c565b92505b6118d2838367ffffffffffffffff166001611fdc565b905092915050565b600080838360f81b6040516020016118f3929190613604565b6040516020818303038152906040529050605d73ffffffffffffffffffffffffffffffffffffffff16634b252ec8826040518263ffffffff1660e01b815260040161193e9190612a70565b602060405180830381865afa15801561195b573d6000803e3d6000fd5b505050506040513d601f19601f8201168201806040525081019061197f9190613658565b91505092915050565b60006119948383612082565b905092915050565b60006119a88383612114565b905092915050565b60006119bd84848461215e565b90509392505050565b6000806119d2836121e8565b14159050919050565b60006119e7838361226c565b905092915050565b60007f000000000000000000000000000000000000000000000000000000000000000073ffffffffffffffffffffffffffffffffffffffff163073ffffffffffffffffffffffffffffffffffffffff16148015611a6b57507f000000000000000000000000000000000000000000000000000000000000000046145b15611a98577f00000000000000000000000000000000000000000000000000000000000000009050611aa3565b611aa06122b6565b90505b90565b60006040517f190100000000000000000000000000000000000000000000000000000000000081528360028201528260228201526042812091505092915050565b60008060006041845103611b2c5760008060006020870151925060408701519150606087015160001a9050611b1e8882858561234c565b955095509550505050611b3c565b60006002855160001b9250925092505b9250925092565b60006003811115611b5757611b56613685565b5b826003811115611b6a57611b69613685565b5b0315611ca35760016003811115611b8457611b83613685565b5b826003811115611b9757611b96613685565b5b03611bce576040517ff645eedf00000000000000000000000000000000000000000000000000000000815260040160405180910390fd5b60026003811115611be257611be1613685565b5b826003811115611bf557611bf4613685565b5b03611c3a578060001c6040517ffce698f7000000000000000000000000000000000000000000000000000000008152600401611c3191906136b4565b60405180910390fd5b600380811115611c4d57611c4c613685565b5b826003811115611c6057611c5f613685565b5b03611ca257806040517fd78bce0c000000000000000000000000000000000000000000000000000000008152600401611c9991906136cf565b60405180910390fd5b5b5050565b6060605d73ffffffffffffffffffffffffffffffffffffffff1663d6ad57cd848460001c6040518363ffffffff1660e01b8152600401611ce89291906136ea565b600060405180830381865afa158015611d05573d6000803e3d6000fd5b505050506040513d6000823e3d601f19601f82011682018060405250810190611d2e91906137b4565b905092915050565b6000605d73ffffffffffffffffffffffffffffffffffffffff1663e71746b8848460f81b6040518363ffffffff1660e01b8152600401611d779291906137fd565b602060405180830381865afa158015611d94573d6000803e3d6000fd5b505050506040513d601f19601f82011682018060405250810190611db89190613658565b905092915050565b6000600260009054906101000a900473ffffffffffffffffffffffffffffffffffffffff16905081600260006101000a81548173ffffffffffffffffffffffffffffffffffffffff021916908373ffffffffffffffffffffffffffffffffffffffff1602179055508173ffffffffffffffffffffffffffffffffffffffff168173ffffffffffffffffffffffffffffffffffffffff167f8be0079c531659141344cd1fd0a4f28419497f9722a3daafe3b4186f6b6457e060405160405180910390a35050565b606060ff60001b8314611ea357611e9c83612440565b9050611f30565b818054611eaf90612fd8565b80601f0160208091040260200160405190810160405280929190818152602001828054611edb90612fd8565b8015611f285780601f10611efd57610100808354040283529160200191611f28565b820191906000526020600020905b815481529060010190602001808311611f0b57829003601f168201915b505050505090505b92915050565b6000808215611f4b57600160f81b9050611f53565b600060f81b90505b605d73ffffffffffffffffffffffffffffffffffffffff1663694daf728686846040518463ffffffff1660e01b8152600401611f9193929190613826565b602060405180830381865afa158015611fae573d6000803e3d6000fd5b505050506040513d601f19601f82011682018060405250810190611fd29190613658565b9150509392505050565b6000808215611ff157600160f81b9050611ff9565b600060f81b90505b605d73ffffffffffffffffffffffffffffffffffffffff1663f953e4278686846040518463ffffffff1660e01b815260040161203793929190613826565b602060405180830381865afa158015612054573d6000803e3d6000fd5b505050506040513d601f19601f820116820180604052508101906120789190613658565b9150509392505050565b600080600060f81b9050605d73ffffffffffffffffffffffffffffffffffffffff1663666a35888585846040518463ffffffff1660e01b81526004016120ca93929190613826565b602060405180830381865afa1580156120e7573d6000803e3d6000fd5b505050506040513d601f19601f8201168201806040525081019061210b9190613658565b91505092915050565b600061211f836116ff565b6121305761212d600061170c565b92505b612139826116ff565b61214a57612147600061170c565b91505b612156838360006124b4565b905092915050565b6000605d73ffffffffffffffffffffffffffffffffffffffff1663cb3b94078585856040518463ffffffff1660e01b815260040161219e9392919061385d565b602060405180830381865afa1580156121bb573d6000803e3d6000fd5b505050506040513d601f19601f820116820180604052508101906121df9190613658565b90509392505050565b6000605d73ffffffffffffffffffffffffffffffffffffffff16635a4ee440836040518263ffffffff1660e01b815260040161222491906136b4565b602060405180830381865afa158015612241573d6000803e3d6000fd5b505050506040513d601f19601f820116820180604052508101906122659190613658565b9050919050565b6000612277836116ff565b61228857612285600061170c565b92505b612291826116ff565b6122a25761229f600061170c565b91505b6122ae83836000611fdc565b905092915050565b60007f8b73c3c69bb8fe3d512ecc4cf759cc79239f7b179b0ffacaa9a75d522b39400f7f00000000000000000000000000000000000000000000000000000000000000007f00000000000000000000000000000000000000000000000000000000000000004630604051602001612331959493929190613894565b60405160208183030381529060405280519060200120905090565b60008060007f7fffffffffffffffffffffffffffffff5d576e7357a4501ddfe92f46681b20a08460001c111561238c576000600385925092509250612436565b6000600188888888604051600081526020016040526040516123b194939291906138e7565b6020604051602081039080840390855afa1580156123d3573d6000803e3d6000fd5b505050602060405103519050600073ffffffffffffffffffffffffffffffffffffffff168173ffffffffffffffffffffffffffffffffffffffff160361242757600060016000801b93509350935050612436565b8060008060001b935093509350505b9450945094915050565b6060600061244d8361255a565b90506000602067ffffffffffffffff81111561246c5761246b6130c4565b5b6040519080825280601f01601f19166020018201604052801561249e5781602001600182028036833780820191505090505b5090508181528360208201528092505050919050565b60008082156124c957600160f81b90506124d1565b600060f81b90505b605d73ffffffffffffffffffffffffffffffffffffffff16638c14cc218686846040518463ffffffff1660e01b815260040161250f93929190613826565b602060405180830381865afa15801561252c573d6000803e3d6000fd5b505050506040513d601f19601f820116820180604052508101906125509190613658565b9150509392505050565b60008060ff8360001c169050601f8111156125a1576040517fb3512b0c00000000000000000000000000000000000000000000000000000000815260040160405180910390fd5b80915050919050565b6000604051905090565b600080fd5b600080fd5b600073ffffffffffffffffffffffffffffffffffffffff82169050919050565b60006125e9826125be565b9050919050565b6125f9816125de565b811461260457600080fd5b50565b600081359050612616816125f0565b92915050565b600080fd5b600080fd5b600080fd5b60008083601f8401126126415761264061261c565b5b8235905067ffffffffffffffff81111561265e5761265d612621565b5b60208301915083600182028301111561267a57612679612626565b5b9250929050565b60008060006040848603121561269a576126996125b4565b5b60006126a886828701612607565b935050602084013567ffffffffffffffff8111156126c9576126c86125b9565b5b6126d58682870161262b565b92509250509250925092565b60008115159050919050565b6126f6816126e1565b82525050565b600060208201905061271160008301846126ed565b92915050565b600081519050919050565b600082825260208201905092915050565b60005b83811015612751578082015181840152602081019050612736565b60008484015250505050565b6000601f19601f8301169050919050565b600061277982612717565b6127838185612722565b9350612793818560208601612733565b61279c8161275d565b840191505092915050565b600060208201905081810360008301526127c1818461276e565b905092915050565b6000819050919050565b6127dc816127c9565b81146127e757600080fd5b50565b6000813590506127f9816127d3565b92915050565b60008060408385031215612816576128156125b4565b5b600061282485828601612607565b9250506020612835858286016127ea565b9150509250929050565b6000819050919050565b600061286461285f61285a846127c9565b61283f565b6127c9565b9050919050565b61287481612849565b82525050565b600060208201905061288f600083018461286b565b92915050565b600067ffffffffffffffff82169050919050565b6128b281612895565b82525050565b60006020820190506128cd60008301846128a9565b92915050565b6000806000606084860312156128ec576128eb6125b4565b5b60006128fa86828701612607565b935050602061290b86828701612607565b925050604061291c868287016127ea565b9150509250925092565b600060ff82169050919050565b61293c81612926565b82525050565b60006020820190506129576000830184612933565b92915050565b6000819050919050565b6129708161295d565b811461297b57600080fd5b50565b60008135905061298d81612967565b92915050565b6000806000806000608086880312156129af576129ae6125b4565b5b60006129bd88828901612607565b95505060206129ce88828901612607565b94505060406129df8882890161297e565b935050606086013567ffffffffffffffff811115612a00576129ff6125b9565b5b612a0c8882890161262b565b92509250509295509295909350565b600081519050919050565b600082825260208201905092915050565b6000612a4282612a1b565b612a4c8185612a26565b9350612a5c818560208601612733565b612a658161275d565b840191505092915050565b60006020820190508181036000830152612a8a8184612a37565b905092915050565b60008060008060608587031215612aac57612aab6125b4565b5b6000612aba87828801612607565b9450506020612acb87828801612607565b935050604085013567ffffffffffffffff811115612aec57612aeb6125b9565b5b612af88782880161262b565b925092505092959194509250565b60008060008060608587031215612b2057612b1f6125b4565b5b6000612b2e87828801612607565b9450506020612b3f8782880161297e565b935050604085013567ffffffffffffffff811115612b6057612b5f6125b9565b5b612b6c8782880161262b565b925092505092959194509250565b60007fff0000000000000000000000000000000000000000000000000000000000000082169050919050565b612baf81612b7a565b82525050565b612bbe816127c9565b82525050565b612bcd816125de565b82525050565b612bdc8161295d565b82525050565b600081519050919050565b600082825260208201905092915050565b6000819050602082019050919050565b612c17816127c9565b82525050565b6000612c298383612c0e565b60208301905092915050565b6000602082019050919050565b6000612c4d82612be2565b612c578185612bed565b9350612c6283612bfe565b8060005b83811015612c93578151612c7a8882612c1d565b9750612c8583612c35565b925050600181019050612c66565b5085935050505092915050565b600060e082019050612cb5600083018a612ba6565b8181036020830152612cc7818961276e565b90508181036040830152612cdb818861276e565b9050612cea6060830187612bb5565b612cf76080830186612bc4565b612d0460a0830185612bd3565b81810360c0830152612d168184612c42565b905098975050505050505050565b6000602082019050612d396000830184612bc4565b92915050565b600081519050919050565b600082825260208201905092915050565b6000819050602082019050919050565b600082825260208201905092915050565b6000612d8782612717565b612d918185612d6b565b9350612da1818560208601612733565b612daa8161275d565b840191505092915050565b6000612dc18383612d7c565b905092915050565b6000602082019050919050565b6000612de182612d3f565b612deb8185612d4a565b935083602082028501612dfd85612d5b565b8060005b85811015612e395784840389528151612e1a8582612db5565b9450612e2583612dc9565b925060208a01995050600181019050612e01565b50829750879550505050505092915050565b60006020820190508181036000830152612e658184612dd6565b905092915050565b60008083601f840112612e8357612e8261261c565b5b8235905067ffffffffffffffff811115612ea057612e9f612621565b5b602083019150836001820283011115612ebc57612ebb612626565b5b9250929050565b600080600060408486031215612edc57612edb6125b4565b5b6000612eea86828701612607565b935050602084013567ffffffffffffffff811115612f0b57612f0a6125b9565b5b612f1786828701612e6d565b92509250509250925092565b600060208284031215612f3957612f386125b4565b5b6000612f4784828501612607565b91505092915050565b612f5981612895565b8114612f6457600080fd5b50565b600081359050612f7681612f50565b92915050565b600060208284031215612f9257612f916125b4565b5b6000612fa084828501612f67565b91505092915050565b7f4e487b7100000000000000000000000000000000000000000000000000000000600052602260045260246000fd5b60006002820490506001821680612ff057607f821691505b60208210810361300357613002612fa9565b5b50919050565b600060408201905061301e6000830185612bd3565b61302b6020830184612bd3565b9392505050565b7f454950373132207369676e657220616e64207472616e73616374696f6e20736960008201527f676e657220646f206e6f74206d61746368000000000000000000000000000000602082015250565b600061308e603183612722565b915061309982613032565b604082019050919050565b600060208201905081810360008301526130bd81613081565b9050919050565b7f4e487b7100000000000000000000000000000000000000000000000000000000600052604160045260246000fd5b6130fc8261275d565b810181811067ffffffffffffffff8211171561311b5761311a6130c4565b5b80604052505050565b600061312e6125aa565b905061313a82826130f3565b919050565b600067ffffffffffffffff82111561315a576131596130c4565b5b602082029050602081019050919050565b600080fd5b600067ffffffffffffffff82111561318b5761318a6130c4565b5b6131948261275d565b9050602081019050919050565b60006131b46131af84613170565b613124565b9050828152602081018484840111156131d0576131cf61316b565b5b6131db848285612733565b509392505050565b600082601f8301126131f8576131f761261c565b5b81516132088482602086016131a1565b91505092915050565b600061322461321f8461313f565b613124565b9050808382526020820190506020840283018581111561324757613246612626565b5b835b8181101561328e57805167ffffffffffffffff81111561326c5761326b61261c565b5b80860161327989826131e3565b85526020850194505050602081019050613249565b5050509392505050565b600082601f8301126132ad576132ac61261c565b5b81516132bd848260208601613211565b91505092915050565b6000602082840312156132dc576132db6125b4565b5b600082015167ffffffffffffffff8111156132fa576132f96125b9565b5b61330684828501613298565b91505092915050565b7f416363657373207265737472696374656420746f207468652063757272656e7460008201527f20455243323052756c6573000000000000000000000000000000000000000000602082015250565b600061336b602b83612722565b91506133768261330f565b604082019050919050565b6000602082019050818103600083015261339a8161335e565b9050919050565b82818337600083830152505050565b60006133bc8385612722565b93506133c98385846133a1565b6133d28361275d565b840190509392505050565b60006040820190506133f26000830186612bc4565b81810360208301526134058184866133b0565b9050949350505050565b60008151905061341e816127d3565b92915050565b60006020828403121561343a576134396125b4565b5b60006134488482850161340f565b91505092915050565b7f4e487b7100000000000000000000000000000000000000000000000000000000600052601160045260246000fd5b600061348b82612895565b915061349683612895565b9250828201905067ffffffffffffffff8111156134b6576134b5613451565b5b92915050565b6134c5816127c9565b81146134d057600080fd5b50565b6000815190506134e2816134bc565b92915050565b6000602082840312156134fe576134fd6125b4565b5b600061350c848285016134d3565b91505092915050565b7f4f7065726174696f6e206973206e6f74207065726d697474656420647565207460008201527f6f20616765207265737472696374696f6e730000000000000000000000000000602082015250565b6000613571603283612722565b915061357c82613515565b604082019050919050565b600060208201905081810360008301526135a081613564565b9050919050565b600081905092915050565b60006135bd82612a1b565b6135c781856135a7565b93506135d7818560208601612733565b80840191505092915050565b6000819050919050565b6135fe6135f982612b7a565b6135e3565b82525050565b600061361082856135b2565b915061361c82846135ed565b6001820191508190509392505050565b613635816127c9565b811461364057600080fd5b50565b6000815190506136528161362c565b92915050565b60006020828403121561366e5761366d6125b4565b5b600061367c84828501613643565b91505092915050565b7f4e487b7100000000000000000000000000000000000000000000000000000000600052602160045260246000fd5b60006020820190506136c96000830184612bb5565b92915050565b60006020820190506136e46000830184612bd3565b92915050565b60006040820190506136ff6000830185612bb5565b61370c6020830184612bb5565b9392505050565b600067ffffffffffffffff82111561372e5761372d6130c4565b5b6137378261275d565b9050602081019050919050565b600061375761375284613713565b613124565b9050828152602081018484840111156137735761377261316b565b5b61377e848285612733565b509392505050565b600082601f83011261379b5761379a61261c565b5b81516137ab848260208601613744565b91505092915050565b6000602082840312156137ca576137c96125b4565b5b600082015167ffffffffffffffff8111156137e8576137e76125b9565b5b6137f484828501613786565b91505092915050565b60006040820190506138126000830185612bb5565b61381f6020830184612ba6565b9392505050565b600060608201905061383b6000830186612bb5565b6138486020830185612bb5565b6138556040830184612ba6565b949350505050565b60006060820190506138726000830186612bb5565b61387f6020830185612bb5565b61388c6040830184612bb5565b949350505050565b600060a0820190506138a96000830188612bd3565b6138b66020830187612bd3565b6138c36040830186612bd3565b6138d06060830185612bb5565b6138dd6080830184612bc4565b9695505050505050565b60006080820190506138fc6000830187612bd3565b6139096020830186612933565b6139166040830185612bd3565b6139236060830184612bd3565b9594505050505056fea26469706673582212206fe69d19649d3d15f09dbcd9c47ad27baad8bb8b5b1bf75c5e2b5dc9175dca6e64736f6c63430008180033",
  "linkReferences": {},
  "deployedLinkReferences": {}
}