{
  "_format": "hh-sol-artifact-1",
  "contractName": "Counter",
  "sourceName": "contracts/Counter.sol",
  "abi": [
    {
      "inputs": [],
      "stateMutability": "nonpayable",
      "type": "constructor"
    },
    {
      "inputs": [
        {
          "internalType": "bytes",
          "name": "encryptedValue",
          "type": "bytes"
        }
      ],
      "name": "add",
      "outputs": [],
      "stateMutability": "nonpayable",
      "type": "function"
    },
    {
      "inputs": [
        {
          "internalType": "bytes32",
          "name": "publicKey",
          "type": "bytes32"
        }
      ],
      "name": "getCounter",
      "outputs": [
        {
          "internalType": "bytes",
          "name": "",
          "type": "bytes"
        }
      ],
      "stateMutability": "nonpayable",
      "type": "function"
    },
    {
      "inputs": [],
      "name": "owner",
      "outputs": [
        {
          "internalType": "address",
          "name": "",
          "type": "address"
        }
      ],
      "stateMutability": "view",
      "type": "function"
    }
  ],
  "bytecode": "0x608060405234801561001057600080fd5b5033600160006101000a81548173ffffffffffffffffffffffffffffffffffffffff021916908373ffffffffffffffffffffffffffffffffffffffff1602179055506109f9806100616000396000f3fe608060405234801561001057600080fd5b50600436106100415760003560e01c8063836e0901146100465780638da5cb5b14610076578063ba65811114610094575b600080fd5b610060600480360381019061005b91906104b1565b6100b0565b60405161006d919061056e565b60405180910390f35b61007e6100c5565b60405161008b91906105d1565b60405180910390f35b6100ae60048036038101906100a99190610651565b6100eb565b005b60606100be60005483610153565b9050919050565b600160009054906101000a900473ffffffffffffffffffffffffffffffffffffffff1681565b600061013a83838080601f016020809104026020016040519081016040528093929190818152602001838380828437600081840152601f19601f82011690508083019250505050505050610167565b90506101486000548261017b565b600081905550505050565b606061015f838361018f565b905092915050565b600061017482600461021e565b9050919050565b600061018783836102cc565b905092915050565b6060605d73ffffffffffffffffffffffffffffffffffffffff1663d6ad57cd848460001c6040518363ffffffff1660e01b81526004016101d09291906106b7565b600060405180830381865afa1580156101ed573d6000803e3d6000fd5b505050506040513d6000823e3d601f19601f820116820180604052508101906102169190610801565b905092915050565b600080838360f81b6040516020016102379291906108d3565b6040516020818303038152906040529050605d73ffffffffffffffffffffffffffffffffffffffff16634b252ec8826040518263ffffffff1660e01b8152600401610282919061056e565b602060405180830381865afa15801561029f573d6000803e3d6000fd5b505050506040513d601f19601f820116820180604052508101906102c39190610927565b91505092915050565b60006102d783610316565b6102e8576102e56000610323565b92505b6102f182610316565b610302576102ff6000610323565b91505b61030e83836000610337565b905092915050565b6000808214159050919050565b60006103308260046103dd565b9050919050565b600080821561034c57600160f81b9050610354565b600060f81b90505b605d73ffffffffffffffffffffffffffffffffffffffff1663f953e4278686846040518463ffffffff1660e01b815260040161039293929190610963565b602060405180830381865afa1580156103af573d6000803e3d6000fd5b505050506040513d601f19601f820116820180604052508101906103d39190610927565b9150509392505050565b6000605d73ffffffffffffffffffffffffffffffffffffffff1663e71746b8848460f81b6040518363ffffffff1660e01b815260040161041e92919061099a565b602060405180830381865afa15801561043b573d6000803e3d6000fd5b505050506040513d601f19601f8201168201806040525081019061045f9190610927565b905092915050565b6000604051905090565b600080fd5b600080fd5b6000819050919050565b61048e8161047b565b811461049957600080fd5b50565b6000813590506104ab81610485565b92915050565b6000602082840312156104c7576104c6610471565b5b60006104d58482850161049c565b91505092915050565b600081519050919050565b600082825260208201905092915050565b60005b838110156105185780820151818401526020810190506104fd565b60008484015250505050565b6000601f19601f8301169050919050565b6000610540826104de565b61054a81856104e9565b935061055a8185602086016104fa565b61056381610524565b840191505092915050565b600060208201905081810360008301526105888184610535565b905092915050565b600073ffffffffffffffffffffffffffffffffffffffff82169050919050565b60006105bb82610590565b9050919050565b6105cb816105b0565b82525050565b60006020820190506105e660008301846105c2565b92915050565b600080fd5b600080fd5b600080fd5b60008083601f840112610611576106106105ec565b5b8235905067ffffffffffffffff81111561062e5761062d6105f1565b5b60208301915083600182028301111561064a576106496105f6565b5b9250929050565b6000806020838503121561066857610667610471565b5b600083013567ffffffffffffffff81111561068657610685610476565b5b610692858286016105fb565b92509250509250929050565b6000819050919050565b6106b18161069e565b82525050565b60006040820190506106cc60008301856106a8565b6106d960208301846106a8565b9392505050565b600080fd5b7f4e487b7100000000000000000000000000000000000000000000000000000000600052604160045260246000fd5b61071d82610524565b810181811067ffffffffffffffff8211171561073c5761073b6106e5565b5b80604052505050565b600061074f610467565b905061075b8282610714565b919050565b600067ffffffffffffffff82111561077b5761077a6106e5565b5b61078482610524565b9050602081019050919050565b60006107a461079f84610760565b610745565b9050828152602081018484840111156107c0576107bf6106e0565b5b6107cb8482856104fa565b509392505050565b600082601f8301126107e8576107e76105ec565b5b81516107f8848260208601610791565b91505092915050565b60006020828403121561081757610816610471565b5b600082015167ffffffffffffffff81111561083557610834610476565b5b610841848285016107d3565b91505092915050565b600081905092915050565b6000610860826104de565b61086a818561084a565b935061087a8185602086016104fa565b80840191505092915050565b60007fff0000000000000000000000000000000000000000000000000000000000000082169050919050565b6000819050919050565b6108cd6108c882610886565b6108b2565b82525050565b60006108df8285610855565b91506108eb82846108bc565b6001820191508190509392505050565b6109048161069e565b811461090f57600080fd5b50565b600081519050610921816108fb565b92915050565b60006020828403121561093d5761093c610471565b5b600061094b84828501610912565b91505092915050565b61095d81610886565b82525050565b600060608201905061097860008301866106a8565b61098560208301856106a8565b6109926040830184610954565b949350505050565b60006040820190506109af60008301856106a8565b6109bc6020830184610954565b939250505056fea264697066735822122057639d23e72dc07430efa8681c3e14778466da8a287e6207a26def31ceed4a6b64736f6c63430008180033",
  "linkReferences": {},
  "deployedLinkReferences": {}
}