{
  "_format": "hh-sol-artifact-1",
  "contractName": "ERC20Rules",
  "sourceName": "contracts/ERC20Rules.sol",
  "abi": [
    {
      "inputs": [],
      "stateMutability": "nonpayable",
      "type": "constructor"
    },
    {
      "inputs": [],
      "name": "getIdentifiers",
      "outputs": [
        {
          "internalType": "string[]",
          "name": "",
          "type": "string[]"
        }
      ],
      "stateMutability": "view",
      "type": "function"
    },
    {
      "inputs": [
        {
          "internalType": "uint256",
          "name": "",
          "type": "uint256"
        }
      ],
      "name": "identifiers",
      "outputs": [
        {
          "internalType": "string",
          "name": "",
          "type": "string"
        }
      ],
      "stateMutability": "view",
      "type": "function"
    },
    {
      "inputs": [
        {
          "internalType": "address",
          "name": "to",
          "type": "address"
        }
      ],
      "name": "transfer",
      "outputs": [
        {
          "internalType": "ebool",
          "name": "",
          "type": "uint256"
        }
      ],
      "stateMutability": "view",
      "type": "function"
    },
    {
      "inputs": [
        {
          "internalType": "address",
          "name": "",
          "type": "address"
        }
      ],
      "name": "whitelistedWallets",
      "outputs": [
        {
          "internalType": "uint64",
          "name": "",
          "type": "uint64"
        }
      ],
      "stateMutability": "view",
      "type": "function"
    }
  ],
  "bytecode": "0x60806040523480156200001157600080fd5b5060405180602001604052806040518060400160405280600381526020017f61676500000000000000000000000000000000000000000000000000000000008152508152506000906001620000689291906200006f565b50620004bd565b828054828255906000526020600020908101928215620000bc579160200282015b82811115620000bb578251829081620000aa9190620003d6565b509160200191906001019062000090565b5b509050620000cb9190620000cf565b5090565b5b80821115620000f35760008181620000e99190620000f7565b50600101620000d0565b5090565b5080546200010590620001c5565b6000825580601f106200011957506200013a565b601f0160209004906000526020600020908101906200013991906200013d565b5b50565b5b80821115620001585760008160009055506001016200013e565b5090565b600081519050919050565b7f4e487b7100000000000000000000000000000000000000000000000000000000600052604160045260246000fd5b7f4e487b7100000000000000000000000000000000000000000000000000000000600052602260045260246000fd5b60006002820490506001821680620001de57607f821691505b602082108103620001f457620001f362000196565b5b50919050565b60008190508160005260206000209050919050565b60006020601f8301049050919050565b600082821b905092915050565b6000600883026200025e7fffffffffffffffffffffffffffffffffffffffffffffffffffffffffffffffff826200021f565b6200026a86836200021f565b95508019841693508086168417925050509392505050565b6000819050919050565b6000819050919050565b6000620002b7620002b1620002ab8462000282565b6200028c565b62000282565b9050919050565b6000819050919050565b620002d38362000296565b620002eb620002e282620002be565b8484546200022c565b825550505050565b600090565b62000302620002f3565b6200030f818484620002c8565b505050565b5b8181101562000337576200032b600082620002f8565b60018101905062000315565b5050565b601f82111562000386576200035081620001fa565b6200035b846200020f565b810160208510156200036b578190505b620003836200037a856200020f565b83018262000314565b50505b505050565b600082821c905092915050565b6000620003ab600019846008026200038b565b1980831691505092915050565b6000620003c6838362000398565b9150826002028217905092915050565b620003e1826200015c565b67ffffffffffffffff811115620003fd57620003fc62000167565b5b620004098254620001c5565b620004168282856200033b565b600060209050601f8311600181146200044e576000841562000439578287015190505b620004458582620003b8565b865550620004b5565b601f1984166200045e86620001fa565b60005b82811015620004885784890151825560018201915060208501945060208101905062000461565b86831015620004a85784890151620004a4601f89168262000398565b8355505b6001600288020188555050505b505050505050565b610b9480620004cd6000396000f3fe608060405234801561001057600080fd5b506004361061004c5760003560e01c80631a6952301461005157806328f2d4da14610081578063a4770a88146100b1578063a80dcfee146100cf575b600080fd5b61006b600480360381019061006691906105c0565b6100ff565b6040516100789190610632565b60405180910390f35b61009b60048036038101906100969190610679565b61011d565b6040516100a89190610736565b60405180910390f35b6100b96101c9565b6040516100c69190610864565b60405180910390f35b6100e960048036038101906100e491906105c0565b6102a2565b6040516100f691906108a9565b60405180910390f35b600080339050600061011182856102c9565b90508092505050919050565b6000818154811061012d57600080fd5b906000526020600020016000915090508054610148906108f3565b80601f0160208091040260200160405190810160405280929190818152602001828054610174906108f3565b80156101c15780601f10610196576101008083540402835291602001916101c1565b820191906000526020600020905b8154815290600101906020018083116101a457829003601f168201915b505050505081565b60606000805480602002602001604051908101604052809291908181526020016000905b8282101561029957838290600052602060002001805461020c906108f3565b80601f0160208091040260200160405190810160405280929190818152602001828054610238906108f3565b80156102855780601f1061025a57610100808354040283529160200191610285565b820191906000526020600020905b81548152906001019060200180831161026857829003601f168201915b5050505050815260200190600101906101ed565b50505050905090565b60016020528060005260406000206000915054906101000a900467ffffffffffffffff1681565b6000808373ffffffffffffffffffffffffffffffffffffffff166395cf57b0846040518263ffffffff1660e01b8152600401610305919061097f565b602060405180830381865afa158015610322573d6000803e3d6000fd5b505050506040513d601f19601f8201168201806040525081019061034691906109d9565b9050600060129050610357826103c2565b610396576040517f08c379a000000000000000000000000000000000000000000000000000000000815260040161038d90610a52565b60405180910390fd5b60006103b4836103af8467ffffffffffffffff166103cf565b6103e3565b905080935050505092915050565b6000808214159050919050565b60006103dc82600561042d565b9050919050565b60006103ee836103c2565b6103ff576103fc60006103cf565b92505b610408826103c2565b6104195761041660006103cf565b91505b610425838360006104b7565b905092915050565b6000605d73ffffffffffffffffffffffffffffffffffffffff1663e71746b8848460f81b6040518363ffffffff1660e01b815260040161046e929190610abc565b602060405180830381865afa15801561048b573d6000803e3d6000fd5b505050506040513d601f19601f820116820180604052508101906104af9190610afa565b905092915050565b60008082156104cc57600160f81b90506104d4565b600060f81b90505b605d73ffffffffffffffffffffffffffffffffffffffff16633e63c50a8686846040518463ffffffff1660e01b815260040161051293929190610b27565b602060405180830381865afa15801561052f573d6000803e3d6000fd5b505050506040513d601f19601f820116820180604052508101906105539190610afa565b9150509392505050565b600080fd5b600073ffffffffffffffffffffffffffffffffffffffff82169050919050565b600061058d82610562565b9050919050565b61059d81610582565b81146105a857600080fd5b50565b6000813590506105ba81610594565b92915050565b6000602082840312156105d6576105d561055d565b5b60006105e4848285016105ab565b91505092915050565b6000819050919050565b6000819050919050565b600061061c610617610612846105ed565b6105f7565b6105ed565b9050919050565b61062c81610601565b82525050565b60006020820190506106476000830184610623565b92915050565b610656816105ed565b811461066157600080fd5b50565b6000813590506106738161064d565b92915050565b60006020828403121561068f5761068e61055d565b5b600061069d84828501610664565b91505092915050565b600081519050919050565b600082825260208201905092915050565b60005b838110156106e05780820151818401526020810190506106c5565b60008484015250505050565b6000601f19601f8301169050919050565b6000610708826106a6565b61071281856106b1565b93506107228185602086016106c2565b61072b816106ec565b840191505092915050565b6000602082019050818103600083015261075081846106fd565b905092915050565b600081519050919050565b600082825260208201905092915050565b6000819050602082019050919050565b600082825260208201905092915050565b60006107a0826106a6565b6107aa8185610784565b93506107ba8185602086016106c2565b6107c3816106ec565b840191505092915050565b60006107da8383610795565b905092915050565b6000602082019050919050565b60006107fa82610758565b6108048185610763565b93508360208202850161081685610774565b8060005b85811015610852578484038952815161083385826107ce565b945061083e836107e2565b925060208a0199505060018101905061081a565b50829750879550505050505092915050565b6000602082019050818103600083015261087e81846107ef565b905092915050565b600067ffffffffffffffff82169050919050565b6108a381610886565b82525050565b60006020820190506108be600083018461089a565b92915050565b7f4e487b7100000000000000000000000000000000000000000000000000000000600052602260045260246000fd5b6000600282049050600182168061090b57607f821691505b60208210810361091e5761091d6108c4565b5b50919050565b61092d81610582565b82525050565b7f6167650000000000000000000000000000000000000000000000000000000000600082015250565b60006109696003836106b1565b915061097482610933565b602082019050919050565b60006040820190506109946000830184610924565b81810360208301526109a58161095c565b905092915050565b6109b6816105ed565b81146109c157600080fd5b50565b6000815190506109d3816109ad565b92915050565b6000602082840312156109ef576109ee61055d565b5b60006109fd848285016109c4565b91505092915050565b7f596f7520646f6e27742068617665206163636573730000000000000000000000600082015250565b6000610a3c6015836106b1565b9150610a4782610a06565b602082019050919050565b60006020820190508181036000830152610a6b81610a2f565b9050919050565b610a7b816105ed565b82525050565b60007fff0000000000000000000000000000000000000000000000000000000000000082169050919050565b610ab681610a81565b82525050565b6000604082019050610ad16000830185610a72565b610ade6020830184610aad565b9392505050565b600081519050610af48161064d565b92915050565b600060208284031215610b1057610b0f61055d565b5b6000610b1e84828501610ae5565b91505092915050565b6000606082019050610b3c6000830186610a72565b610b496020830185610a72565b610b566040830184610aad565b94935050505056fea2646970667358221220ddf771881bc75ece602abe4f4d35d714bb9afac96d4283c58708d4781339c7ea64736f6c63430008180033",
  "linkReferences": {},
  "deployedLinkReferences": {}
}