{
  "_format": "hh-sol-artifact-1",
  "contractName": "IdentityRegistry",
  "sourceName": "contracts/IdentityRegistry.sol",
  "abi": [
    {
      "inputs": [],
      "stateMutability": "nonpayable",
      "type": "constructor"
    },
    {
      "inputs": [],
      "name": "ECDSAInvalidSignature",
      "type": "error"
    },
    {
      "inputs": [
        {
          "internalType": "uint256",
          "name": "length",
          "type": "uint256"
        }
      ],
      "name": "ECDSAInvalidSignatureLength",
      "type": "error"
    },
    {
      "inputs": [
        {
          "internalType": "bytes32",
          "name": "s",
          "type": "bytes32"
        }
      ],
      "name": "ECDSAInvalidSignatureS",
      "type": "error"
    },
    {
      "inputs": [],
      "name": "InvalidShortString",
      "type": "error"
    },
    {
      "inputs": [
        {
          "internalType": "address",
          "name": "owner",
          "type": "address"
        }
      ],
      "name": "OwnableInvalidOwner",
      "type": "error"
    },
    {
      "inputs": [
        {
          "internalType": "address",
          "name": "account",
          "type": "address"
        }
      ],
      "name": "OwnableUnauthorizedAccount",
      "type": "error"
    },
    {
      "inputs": [
        {
          "internalType": "string",
          "name": "str",
          "type": "string"
        }
      ],
      "name": "StringTooLong",
      "type": "error"
    },
    {
      "anonymous": false,
      "inputs": [],
      "name": "EIP712DomainChanged",
      "type": "event"
    },
    {
      "anonymous": false,
      "inputs": [
        {
          "indexed": false,
          "internalType": "address",
          "name": "wallet",
          "type": "address"
        }
      ],
      "name": "NewDid",
      "type": "event"
    },
    {
      "anonymous": false,
      "inputs": [
        {
          "indexed": false,
          "internalType": "address",
          "name": "wallet",
          "type": "address"
        },
        {
          "indexed": false,
          "internalType": "uint256",
          "name": "registrarId",
          "type": "uint256"
        }
      ],
      "name": "NewRegistrar",
      "type": "event"
    },
    {
      "anonymous": false,
      "inputs": [
        {
          "indexed": true,
          "internalType": "address",
          "name": "previousOwner",
          "type": "address"
        },
        {
          "indexed": true,
          "internalType": "address",
          "name": "newOwner",
          "type": "address"
        }
      ],
      "name": "OwnershipTransferStarted",
      "type": "event"
    },
    {
      "anonymous": false,
      "inputs": [
        {
          "indexed": true,
          "internalType": "address",
          "name": "previousOwner",
          "type": "address"
        },
        {
          "indexed": true,
          "internalType": "address",
          "name": "newOwner",
          "type": "address"
        }
      ],
      "name": "OwnershipTransferred",
      "type": "event"
    },
    {
      "anonymous": false,
      "inputs": [
        {
          "indexed": false,
          "internalType": "address",
          "name": "wallet",
          "type": "address"
        }
      ],
      "name": "RemoveDid",
      "type": "event"
    },
    {
      "anonymous": false,
      "inputs": [
        {
          "indexed": false,
          "internalType": "address",
          "name": "wallet",
          "type": "address"
        }
      ],
      "name": "RemoveRegistrar",
      "type": "event"
    },
    {
      "inputs": [],
      "name": "acceptOwnership",
      "outputs": [],
      "stateMutability": "nonpayable",
      "type": "function"
    },
    {
      "inputs": [
        {
          "internalType": "address",
          "name": "wallet",
          "type": "address"
        }
      ],
      "name": "addDid",
      "outputs": [],
      "stateMutability": "nonpayable",
      "type": "function"
    },
    {
      "inputs": [
        {
          "internalType": "address",
          "name": "wallet",
          "type": "address"
        },
        {
          "internalType": "uint256",
          "name": "registrarId",
          "type": "uint256"
        }
      ],
      "name": "addRegistrar",
      "outputs": [],
      "stateMutability": "nonpayable",
      "type": "function"
    },
    {
      "inputs": [],
      "name": "eip712Domain",
      "outputs": [
        {
          "internalType": "bytes1",
          "name": "fields",
          "type": "bytes1"
        },
        {
          "internalType": "string",
          "name": "name",
          "type": "string"
        },
        {
          "internalType": "string",
          "name": "version",
          "type": "string"
        },
        {
          "internalType": "uint256",
          "name": "chainId",
          "type": "uint256"
        },
        {
          "internalType": "address",
          "name": "verifyingContract",
          "type": "address"
        },
        {
          "internalType": "bytes32",
          "name": "salt",
          "type": "bytes32"
        },
        {
          "internalType": "uint256[]",
          "name": "extensions",
          "type": "uint256[]"
        }
      ],
      "stateMutability": "view",
      "type": "function"
    },
    {
      "inputs": [
        {
          "internalType": "address",
          "name": "wallet",
          "type": "address"
        },
        {
          "internalType": "string",
          "name": "identifier",
          "type": "string"
        }
      ],
      "name": "getIdentifier",
      "outputs": [
        {
          "internalType": "euint64",
          "name": "",
          "type": "uint256"
        }
      ],
      "stateMutability": "view",
      "type": "function"
    },
    {
      "inputs": [
        {
          "internalType": "address",
          "name": "wallet",
          "type": "address"
        }
      ],
      "name": "getRegistrar",
      "outputs": [
        {
          "internalType": "uint256",
          "name": "",
          "type": "uint256"
        }
      ],
      "stateMutability": "view",
      "type": "function"
    },
    {
      "inputs": [
        {
          "internalType": "address",
          "name": "allowed",
          "type": "address"
        },
        {
          "internalType": "string[]",
          "name": "identifiers",
          "type": "string[]"
        }
      ],
      "name": "grantAccess",
      "outputs": [],
      "stateMutability": "nonpayable",
      "type": "function"
    },
    {
      "inputs": [],
      "name": "owner",
      "outputs": [
        {
          "internalType": "address",
          "name": "",
          "type": "address"
        }
      ],
      "stateMutability": "view",
      "type": "function"
    },
    {
      "inputs": [],
      "name": "pendingOwner",
      "outputs": [
        {
          "internalType": "address",
          "name": "",
          "type": "address"
        }
      ],
      "stateMutability": "view",
      "type": "function"
    },
    {
      "inputs": [
        {
          "internalType": "address",
          "name": "wallet",
          "type": "address"
        },
        {
          "internalType": "string",
          "name": "identifier",
          "type": "string"
        },
        {
          "internalType": "bytes32",
          "name": "publicKey",
          "type": "bytes32"
        },
        {
          "internalType": "bytes",
          "name": "signature",
          "type": "bytes"
        }
      ],
      "name": "reencryptIdentifier",
      "outputs": [
        {
          "internalType": "bytes",
          "name": "",
          "type": "bytes"
        }
      ],
      "stateMutability": "view",
      "type": "function"
    },
    {
      "inputs": [
        {
          "internalType": "address",
          "name": "",
          "type": "address"
        }
      ],
      "name": "registrars",
      "outputs": [
        {
          "internalType": "uint256",
          "name": "",
          "type": "uint256"
        }
      ],
      "stateMutability": "view",
      "type": "function"
    },
    {
      "inputs": [
        {
          "internalType": "address",
          "name": "wallet",
          "type": "address"
        }
      ],
      "name": "removeDid",
      "outputs": [],
      "stateMutability": "nonpayable",
      "type": "function"
    },
    {
      "inputs": [
        {
          "internalType": "address",
          "name": "wallet",
          "type": "address"
        }
      ],
      "name": "removeRegistrar",
      "outputs": [],
      "stateMutability": "nonpayable",
      "type": "function"
    },
    {
      "inputs": [],
      "name": "renounceOwnership",
      "outputs": [],
      "stateMutability": "nonpayable",
      "type": "function"
    },
    {
      "inputs": [
        {
          "internalType": "address",
          "name": "allowed",
          "type": "address"
        },
        {
          "internalType": "string[]",
          "name": "identifiers",
          "type": "string[]"
        }
      ],
      "name": "revokeAccess",
      "outputs": [],
      "stateMutability": "nonpayable",
      "type": "function"
    },
    {
      "inputs": [
        {
          "internalType": "address",
          "name": "wallet",
          "type": "address"
        },
        {
          "internalType": "string",
          "name": "identifier",
          "type": "string"
        },
        {
          "internalType": "bytes",
          "name": "encryptedValue",
          "type": "bytes"
        }
      ],
      "name": "setIdentifier",
      "outputs": [],
      "stateMutability": "nonpayable",
      "type": "function"
    },
    {
      "inputs": [
        {
          "internalType": "address",
          "name": "newOwner",
          "type": "address"
        }
      ],
      "name": "transferOwnership",
      "outputs": [],
      "stateMutability": "nonpayable",
      "type": "function"
    }
  ],
  "bytecode": "0x6101606040523480156200001257600080fd5b50336040518060400160405280601381526020017f417574686f72697a6174696f6e20746f6b656e000000000000000000000000008152506040518060400160405280600181526020017f310000000000000000000000000000000000000000000000000000000000000081525062000096600083620001bd60201b90919060201c565b6101208181525050620000b4600182620001bd60201b90919060201c565b6101408181525050818051906020012060e08181525050808051906020012061010081815250504660a08181525050620000f36200021560201b60201c565b608081815250503073ffffffffffffffffffffffffffffffffffffffff1660c08173ffffffffffffffffffffffffffffffffffffffff16815250505050600073ffffffffffffffffffffffffffffffffffffffff168173ffffffffffffffffffffffffffffffffffffffff1603620001a55760006040517f1e4fbdf70000000000000000000000000000000000000000000000000000000081526004016200019c91906200042d565b60405180910390fd5b620001b6816200027260201b60201c565b5062000989565b6000602083511015620001e357620001db83620002ab60201b60201c565b90506200020f565b82620001f5836200031860201b60201c565b6000019081620002069190620006c4565b5060ff60001b90505b92915050565b60007f8b73c3c69bb8fe3d512ecc4cf759cc79239f7b179b0ffacaa9a75d522b39400f60e05161010051463060405160200162000257959493929190620007d7565b60405160208183030381529060405280519060200120905090565b600360006101000a81549073ffffffffffffffffffffffffffffffffffffffff0219169055620002a8816200032260201b60201c565b50565b600080829050601f81511115620002fb57826040517f305a27a9000000000000000000000000000000000000000000000000000000008152600401620002f29190620008c3565b60405180910390fd5b805181620003099062000919565b60001c1760001b915050919050565b6000819050919050565b6000600260009054906101000a900473ffffffffffffffffffffffffffffffffffffffff16905081600260006101000a81548173ffffffffffffffffffffffffffffffffffffffff021916908373ffffffffffffffffffffffffffffffffffffffff1602179055508173ffffffffffffffffffffffffffffffffffffffff168173ffffffffffffffffffffffffffffffffffffffff167f8be0079c531659141344cd1fd0a4f28419497f9722a3daafe3b4186f6b6457e060405160405180910390a35050565b600073ffffffffffffffffffffffffffffffffffffffff82169050919050565b60006200041582620003e8565b9050919050565b620004278162000408565b82525050565b60006020820190506200044460008301846200041c565b92915050565b600081519050919050565b7f4e487b7100000000000000000000000000000000000000000000000000000000600052604160045260246000fd5b7f4e487b7100000000000000000000000000000000000000000000000000000000600052602260045260246000fd5b60006002820490506001821680620004cc57607f821691505b602082108103620004e257620004e162000484565b5b50919050565b60008190508160005260206000209050919050565b60006020601f8301049050919050565b600082821b905092915050565b6000600883026200054c7fffffffffffffffffffffffffffffffffffffffffffffffffffffffffffffffff826200050d565b6200055886836200050d565b95508019841693508086168417925050509392505050565b6000819050919050565b6000819050919050565b6000620005a56200059f620005998462000570565b6200057a565b62000570565b9050919050565b6000819050919050565b620005c18362000584565b620005d9620005d082620005ac565b8484546200051a565b825550505050565b600090565b620005f0620005e1565b620005fd818484620005b6565b505050565b5b81811015620006255762000619600082620005e6565b60018101905062000603565b5050565b601f82111562000674576200063e81620004e8565b6200064984620004fd565b8101602085101562000659578190505b620006716200066885620004fd565b83018262000602565b50505b505050565b600082821c905092915050565b6000620006996000198460080262000679565b1980831691505092915050565b6000620006b4838362000686565b9150826002028217905092915050565b620006cf826200044a565b67ffffffffffffffff811115620006eb57620006ea62000455565b5b620006f78254620004b3565b6200070482828562000629565b600060209050601f8311600181146200073c576000841562000727578287015190505b620007338582620006a6565b865550620007a3565b601f1984166200074c86620004e8565b60005b8281101562000776578489015182556001820191506020850194506020810190506200074f565b8683101562000796578489015162000792601f89168262000686565b8355505b6001600288020188555050505b505050505050565b6000819050919050565b620007c081620007ab565b82525050565b620007d18162000570565b82525050565b600060a082019050620007ee6000830188620007b5565b620007fd6020830187620007b5565b6200080c6040830186620007b5565b6200081b6060830185620007c6565b6200082a60808301846200041c565b9695505050505050565b600082825260208201905092915050565b60005b838110156200086557808201518184015260208101905062000848565b60008484015250505050565b6000601f19601f8301169050919050565b60006200088f826200044a565b6200089b818562000834565b9350620008ad81856020860162000845565b620008b88162000871565b840191505092915050565b60006020820190508181036000830152620008df818462000882565b905092915050565b600081519050919050565b6000819050602082019050919050565b6000620009108251620007ab565b80915050919050565b60006200092682620008e7565b826200093284620008f2565b90506200093f8162000902565b9250602082101562000982576200097d7fffffffffffffffffffffffffffffffffffffffffffffffffffffffffffffffff836020036008026200050d565b831692505b5050919050565b60805160a05160c05160e051610100516101205161014051613636620009e460003960006113d70152600061139c01526000611e2101526000611e0001526000611860015260006118b6015260006118df01526136366000f3fe608060405234801561001057600080fd5b506004361061010b5760003560e01c80638da5cb5b116100a25780639e3e9119116100715780639e3e911914610282578063ba904eed146102b2578063e30c3978146102ce578063f2fde38b146102ec578063f9ce73a7146103085761010b565b80638da5cb5b146101fc5780638df79df01461021a57806393775a681461023657806395cf57b0146102525761010b565b806384b0196e116100de57806384b0196e1461017057806389aeca76146101945780638c9d677e146101c45780638cc562b1146101e05761010b565b80634de3952114610110578063715018a61461014057806372d128261461014a57806379ba509714610166575b600080fd5b61012a600480360381019061012591906122b8565b610324565b60405161013791906123ef565b60405180910390f35b6101486104b1565b005b610164600480360381019061015f9190612411565b6104c5565b005b61016e610692565b005b610178610721565b60405161018b97969594939291906125c3565b60405180910390f35b6101ae60048036038101906101a99190612411565b6107cb565b6040516101bb9190612647565b60405180910390f35b6101de60048036038101906101d9919061268e565b6107e3565b005b6101fa60048036038101906101f59190612411565b6108af565b005b610204610c4a565b60405161021191906126ce565b60405180910390f35b610234600480360381019061022f91906126e9565b610c74565b005b610250600480360381019061024b91906127d4565b610d1c565b005b61026c60048036038101906102679190612834565b610e13565b60405161027991906128cf565b60405180910390f35b61029c60048036038101906102979190612411565b610e29565b6040516102a99190612647565b60405180910390f35b6102cc60048036038101906102c79190612411565b610e75565b005b6102d6610f7e565b6040516102e391906126ce565b60405180910390f35b61030660048036038101906103019190612411565b610fa8565b005b610322600480360381019061031d91906127d4565b611055565b005b60608383838080601f016020809104026020016040519081016040528093929190818152602001838380828437600081840152601f19601f8201169050808301925050505050505060006103bf7f051d137ae0e1fae6e3b6559fed4442b35a85a9a39789838ad5c9ea05e7da2dce846040516020016103a49291906128ea565b6040516020818303038152906040528051906020012061114c565b905060006103cd8284611166565b90503373ffffffffffffffffffffffffffffffffffffffff168173ffffffffffffffffffffffffffffffffffffffff161461043d576040517f08c379a000000000000000000000000000000000000000000000000000000000815260040161043490612985565b60405180910390fd5b600061044a8c8c8c611192565b905061045581611285565b610494576040517f08c379a000000000000000000000000000000000000000000000000000000000815260040161048b906129f1565b60405180910390fd5b6104a0818a6000611292565b955050505050509695505050505050565b6104b96112d3565b6104c3600061135a565b565b6000600460003373ffffffffffffffffffffffffffffffffffffffff1673ffffffffffffffffffffffffffffffffffffffff1681526020019081526020016000205411610547576040517f08c379a000000000000000000000000000000000000000000000000000000000815260040161053e90612a5d565b60405180910390fd5b6000600560008373ffffffffffffffffffffffffffffffffffffffff1673ffffffffffffffffffffffffffffffffffffffff16815260200190815260200160002060000154146105cc576040517f08c379a00000000000000000000000000000000000000000000000000000000081526004016105c390612aef565b60405180910390fd5b6000600560008373ffffffffffffffffffffffffffffffffffffffff1673ffffffffffffffffffffffffffffffffffffffff1681526020019081526020016000209050600460003373ffffffffffffffffffffffffffffffffffffffff1673ffffffffffffffffffffffffffffffffffffffff1681526020019081526020016000205481600001819055507f1a7870413a438c7a203315009a595fc3d575dee97c4a3e1df73ce689bebffb118260405161068691906126ce565b60405180910390a15050565b600061069c61138b565b90508073ffffffffffffffffffffffffffffffffffffffff166106bd610f7e565b73ffffffffffffffffffffffffffffffffffffffff161461071557806040517f118cdaa700000000000000000000000000000000000000000000000000000000815260040161070c91906126ce565b60405180910390fd5b61071e8161135a565b50565b600060608060008060006060610735611393565b61073d6113ce565b46306000801b600067ffffffffffffffff81111561075e5761075d612b0f565b5b60405190808252806020026020018201604052801561078c5781602001602082028036833780820191505090505b507f0f00000000000000000000000000000000000000000000000000000000000000959493929190965096509650965096509650965090919293949596565b60046020528060005260406000206000915090505481565b6107eb6112d3565b6000811161082e576040517f08c379a000000000000000000000000000000000000000000000000000000000815260040161082590612b8a565b60405180910390fd5b80600460008473ffffffffffffffffffffffffffffffffffffffff1673ffffffffffffffffffffffffffffffffffffffff168152602001908152602001600020819055507f7a646a63968ac3a621a7656c4b1542cae70e30dbdd3b947c38d8da7bb55f13b182826040516108a3929190612baa565b60405180910390a15050565b806000600560008373ffffffffffffffffffffffffffffffffffffffff1673ffffffffffffffffffffffffffffffffffffffff1681526020019081526020016000206000015411610935576040517f08c379a000000000000000000000000000000000000000000000000000000000815260040161092c90612c1f565b60405180910390fd5b816000600460003373ffffffffffffffffffffffffffffffffffffffff1673ffffffffffffffffffffffffffffffffffffffff16815260200190815260200160002054905080600560008473ffffffffffffffffffffffffffffffffffffffff1673ffffffffffffffffffffffffffffffffffffffff16815260200190815260200160002060000154146109fe576040517f08c379a00000000000000000000000000000000000000000000000000000000081526004016109f590612cb1565b60405180910390fd5b6000600560008673ffffffffffffffffffffffffffffffffffffffff1673ffffffffffffffffffffffffffffffffffffffff168152602001908152602001600020600201805480602002602001604051908101604052809291908181526020016000905b82821015610b0e578382906000526020600020018054610a8190612d00565b80601f0160208091040260200160405190810160405280929190818152602001828054610aad90612d00565b8015610afa5780601f10610acf57610100808354040283529160200191610afa565b820191906000526020600020905b815481529060010190602001808311610add57829003601f168201915b505050505081526020019060010190610a62565b50505050905060008151905060005b81811015610bb0576000600560008973ffffffffffffffffffffffffffffffffffffffff1673ffffffffffffffffffffffffffffffffffffffff168152602001908152602001600020600101848381518110610b7c57610b7b612d31565b5b6020026020010151604051610b919190612d9c565b9081526020016040518091039020819055508080600101915050610b1d565b50600560008773ffffffffffffffffffffffffffffffffffffffff1673ffffffffffffffffffffffffffffffffffffffff168152602001908152602001600020600080820160009055600282016000610c0991906120b3565b50507f377ccce6b58db67dd71f2bf83dd5ae78a6d065428299d793fbbdaadadcd3198986604051610c3a91906126ce565b60405180910390a1505050505050565b6000600260009054906101000a900473ffffffffffffffffffffffffffffffffffffffff16905090565b6000610cc383838080601f016020809104026020016040519081016040528093929190818152602001838380828437600081840152601f19601f82011690508083019250505050505050611409565b9050610d148686868080601f016020809104026020016040519081016040528093929190818152602001838380828437600081840152601f19601f820116905080830192505050505050508361141d565b505050505050565b60005b82829050811015610e0d576000600660003373ffffffffffffffffffffffffffffffffffffffff1673ffffffffffffffffffffffffffffffffffffffff16815260200190815260200160002060008673ffffffffffffffffffffffffffffffffffffffff1673ffffffffffffffffffffffffffffffffffffffff168152602001908152602001600020848484818110610dbb57610dba612d31565b5b9050602002810190610dcd9190612dc2565b604051610ddb929190612e59565b908152602001604051809103902060006101000a81548160ff0219169083151502179055508080600101915050610d1f565b50505050565b6000610e20848484611192565b90509392505050565b6000600560008373ffffffffffffffffffffffffffffffffffffffff1673ffffffffffffffffffffffffffffffffffffffff168152602001908152602001600020600001549050919050565b610e7d6112d3565b6000600460008373ffffffffffffffffffffffffffffffffffffffff1673ffffffffffffffffffffffffffffffffffffffff1681526020019081526020016000205411610eff576040517f08c379a0000000000000000000000000000000000000000000000000000000008152600401610ef690612ebe565b60405180910390fd5b6000600460008373ffffffffffffffffffffffffffffffffffffffff1673ffffffffffffffffffffffffffffffffffffffff168152602001908152602001600020819055507fd7bddddcf89432d764b94c1529db734041d1dc33838e7f989d7e12302f09d10a81604051610f7391906126ce565b60405180910390a150565b6000600360009054906101000a900473ffffffffffffffffffffffffffffffffffffffff16905090565b610fb06112d3565b80600360006101000a81548173ffffffffffffffffffffffffffffffffffffffff021916908373ffffffffffffffffffffffffffffffffffffffff1602179055508073ffffffffffffffffffffffffffffffffffffffff16611010610c4a565b73ffffffffffffffffffffffffffffffffffffffff167f38d16b8cac22d99fc7c124b9cd0de2d3fa1faef420bfe791d8c362d765e2270060405160405180910390a350565b60005b82829050811015611146576001600660003373ffffffffffffffffffffffffffffffffffffffff1673ffffffffffffffffffffffffffffffffffffffff16815260200190815260200160002060008673ffffffffffffffffffffffffffffffffffffffff1673ffffffffffffffffffffffffffffffffffffffff1681526020019081526020016000208484848181106110f4576110f3612d31565b5b90506020028101906111069190612dc2565b604051611114929190612e59565b908152602001604051809103902060006101000a81548160ff0219169083151502179055508080600101915050611058565b50505050565b600061115f61115961185c565b83611913565b9050919050565b6000806000806111768686611954565b92509250925061118682826119b0565b82935050505092915050565b6000836000600560008373ffffffffffffffffffffffffffffffffffffffff1673ffffffffffffffffffffffffffffffffffffffff168152602001908152602001600020600001541161121a576040517f08c379a000000000000000000000000000000000000000000000000000000000815260040161121190612c1f565b60405180910390fd5b600560008673ffffffffffffffffffffffffffffffffffffffff1673ffffffffffffffffffffffffffffffffffffffff168152602001908152602001600020600101848460405161126c929190612e59565b9081526020016040518091039020549150509392505050565b6000808214159050919050565b6060600084146112ad576112a68484611b14565b90506112cc565b6112c96112c38367ffffffffffffffff16611ba3565b84611b14565b90505b9392505050565b6112db61138b565b73ffffffffffffffffffffffffffffffffffffffff166112f9610c4a565b73ffffffffffffffffffffffffffffffffffffffff16146113585761131c61138b565b6040517f118cdaa700000000000000000000000000000000000000000000000000000000815260040161134f91906126ce565b60405180910390fd5b565b600360006101000a81549073ffffffffffffffffffffffffffffffffffffffff021916905561138881611bb7565b50565b600033905090565b60606113c960007f0000000000000000000000000000000000000000000000000000000000000000611c7d90919063ffffffff16565b905090565b606061140460017f0000000000000000000000000000000000000000000000000000000000000000611c7d90919063ffffffff16565b905090565b6000611416826005611d2d565b9050919050565b826000600560008373ffffffffffffffffffffffffffffffffffffffff1673ffffffffffffffffffffffffffffffffffffffff16815260200190815260200160002060000154116114a3576040517f08c379a000000000000000000000000000000000000000000000000000000000815260040161149a90612c1f565b60405180910390fd5b836000600460003373ffffffffffffffffffffffffffffffffffffffff1673ffffffffffffffffffffffffffffffffffffffff16815260200190815260200160002054905080600560008473ffffffffffffffffffffffffffffffffffffffff1673ffffffffffffffffffffffffffffffffffffffff168152602001908152602001600020600001541461156c576040517f08c379a000000000000000000000000000000000000000000000000000000000815260040161156390612cb1565b60405180910390fd5b83600560008873ffffffffffffffffffffffffffffffffffffffff1673ffffffffffffffffffffffffffffffffffffffff168152602001908152602001600020600101866040516115bd9190612d9c565b9081526020016040518091039020819055506000600560008873ffffffffffffffffffffffffffffffffffffffff1673ffffffffffffffffffffffffffffffffffffffff168152602001908152602001600020600201805480602002602001604051908101604052809291908181526020016000905b828210156116df57838290600052602060002001805461165290612d00565b80601f016020809104026020016040519081016040528092919081815260200182805461167e90612d00565b80156116cb5780601f106116a0576101008083540402835291602001916116cb565b820191906000526020600020905b8154815290600101906020018083116116ae57829003601f168201915b505050505081526020019060010190611633565b50505050905060008151905060005b8181101561178b578780519060200120600560008b73ffffffffffffffffffffffffffffffffffffffff1673ffffffffffffffffffffffffffffffffffffffff168152602001908152602001600020600201828154811061175257611751612d31565b5b906000526020600020016040516117699190612f81565b60405180910390200361177e57505050611854565b80806001019150506116ee565b50601460018261179b9190612fc7565b11156117dc576040517f08c379a00000000000000000000000000000000000000000000000000000000081526004016117d390613047565b60405180910390fd5b600560008973ffffffffffffffffffffffffffffffffffffffff1673ffffffffffffffffffffffffffffffffffffffff1681526020019081526020016000206002018790806001815401808255809150506001900390600052602060002001600090919091909150908161185091906131e7565b5050505b505050505050565b60007f000000000000000000000000000000000000000000000000000000000000000073ffffffffffffffffffffffffffffffffffffffff163073ffffffffffffffffffffffffffffffffffffffff161480156118d857507f000000000000000000000000000000000000000000000000000000000000000046145b15611905577f00000000000000000000000000000000000000000000000000000000000000009050611910565b61190d611ddb565b90505b90565b60006040517f190100000000000000000000000000000000000000000000000000000000000081528360028201528260228201526042812091505092915050565b600080600060418451036119995760008060006020870151925060408701519150606087015160001a905061198b88828585611e71565b9550955095505050506119a9565b60006002855160001b9250925092505b9250925092565b600060038111156119c4576119c36132b9565b5b8260038111156119d7576119d66132b9565b5b0315611b1057600160038111156119f1576119f06132b9565b5b826003811115611a0457611a036132b9565b5b03611a3b576040517ff645eedf00000000000000000000000000000000000000000000000000000000815260040160405180910390fd5b60026003811115611a4f57611a4e6132b9565b5b826003811115611a6257611a616132b9565b5b03611aa7578060001c6040517ffce698f7000000000000000000000000000000000000000000000000000000008152600401611a9e9190612647565b60405180910390fd5b600380811115611aba57611ab96132b9565b5b826003811115611acd57611acc6132b9565b5b03611b0f57806040517fd78bce0c000000000000000000000000000000000000000000000000000000008152600401611b0691906132e8565b60405180910390fd5b5b5050565b6060605d73ffffffffffffffffffffffffffffffffffffffff1663d6ad57cd848460001c6040518363ffffffff1660e01b8152600401611b55929190613303565b600060405180830381865afa158015611b72573d6000803e3d6000fd5b505050506040513d6000823e3d601f19601f82011682018060405250810190611b9b919061341e565b905092915050565b6000611bb0826005611f65565b9050919050565b6000600260009054906101000a900473ffffffffffffffffffffffffffffffffffffffff16905081600260006101000a81548173ffffffffffffffffffffffffffffffffffffffff021916908373ffffffffffffffffffffffffffffffffffffffff1602179055508173ffffffffffffffffffffffffffffffffffffffff168173ffffffffffffffffffffffffffffffffffffffff167f8be0079c531659141344cd1fd0a4f28419497f9722a3daafe3b4186f6b6457e060405160405180910390a35050565b606060ff60001b8314611c9a57611c9383611fef565b9050611d27565b818054611ca690612d00565b80601f0160208091040260200160405190810160405280929190818152602001828054611cd290612d00565b8015611d1f5780601f10611cf457610100808354040283529160200191611d1f565b820191906000526020600020905b815481529060010190602001808311611d0257829003601f168201915b505050505090505b92915050565b600080838360f81b604051602001611d469291906134b9565b6040516020818303038152906040529050605d73ffffffffffffffffffffffffffffffffffffffff16634b252ec8826040518263ffffffff1660e01b8152600401611d9191906123ef565b602060405180830381865afa158015611dae573d6000803e3d6000fd5b505050506040513d601f19601f82011682018060405250810190611dd291906134f6565b91505092915050565b60007f8b73c3c69bb8fe3d512ecc4cf759cc79239f7b179b0ffacaa9a75d522b39400f7f00000000000000000000000000000000000000000000000000000000000000007f00000000000000000000000000000000000000000000000000000000000000004630604051602001611e56959493929190613523565b60405160208183030381529060405280519060200120905090565b60008060007f7fffffffffffffffffffffffffffffff5d576e7357a4501ddfe92f46681b20a08460001c1115611eb1576000600385925092509250611f5b565b600060018888888860405160008152602001604052604051611ed69493929190613592565b6020604051602081039080840390855afa158015611ef8573d6000803e3d6000fd5b505050602060405103519050600073ffffffffffffffffffffffffffffffffffffffff168173ffffffffffffffffffffffffffffffffffffffff1603611f4c57600060016000801b93509350935050611f5b565b8060008060001b935093509350505b9450945094915050565b6000605d73ffffffffffffffffffffffffffffffffffffffff1663e71746b8848460f81b6040518363ffffffff1660e01b8152600401611fa69291906135d7565b602060405180830381865afa158015611fc3573d6000803e3d6000fd5b505050506040513d601f19601f82011682018060405250810190611fe791906134f6565b905092915050565b60606000611ffc83612063565b90506000602067ffffffffffffffff81111561201b5761201a612b0f565b5b6040519080825280601f01601f19166020018201604052801561204d5781602001600182028036833780820191505090505b5090508181528360208201528092505050919050565b60008060ff8360001c169050601f8111156120aa576040517fb3512b0c00000000000000000000000000000000000000000000000000000000815260040160405180910390fd5b80915050919050565b50805460008255906000526020600020908101906120d191906120d4565b50565b5b808211156120f457600081816120eb91906120f8565b506001016120d5565b5090565b50805461210490612d00565b6000825580601f106121165750612135565b601f0160209004906000526020600020908101906121349190612138565b5b50565b5b80821115612151576000816000905550600101612139565b5090565b6000604051905090565b600080fd5b600080fd5b600073ffffffffffffffffffffffffffffffffffffffff82169050919050565b600061219482612169565b9050919050565b6121a481612189565b81146121af57600080fd5b50565b6000813590506121c18161219b565b92915050565b600080fd5b600080fd5b600080fd5b60008083601f8401126121ec576121eb6121c7565b5b8235905067ffffffffffffffff811115612209576122086121cc565b5b602083019150836001820283011115612225576122246121d1565b5b9250929050565b6000819050919050565b61223f8161222c565b811461224a57600080fd5b50565b60008135905061225c81612236565b92915050565b60008083601f840112612278576122776121c7565b5b8235905067ffffffffffffffff811115612295576122946121cc565b5b6020830191508360018202830111156122b1576122b06121d1565b5b9250929050565b600080600080600080608087890312156122d5576122d461215f565b5b60006122e389828a016121b2565b965050602087013567ffffffffffffffff81111561230457612303612164565b5b61231089828a016121d6565b9550955050604061232389828a0161224d565b935050606087013567ffffffffffffffff81111561234457612343612164565b5b61235089828a01612262565b92509250509295509295509295565b600081519050919050565b600082825260208201905092915050565b60005b8381101561239957808201518184015260208101905061237e565b60008484015250505050565b6000601f19601f8301169050919050565b60006123c18261235f565b6123cb818561236a565b93506123db81856020860161237b565b6123e4816123a5565b840191505092915050565b6000602082019050818103600083015261240981846123b6565b905092915050565b6000602082840312156124275761242661215f565b5b6000612435848285016121b2565b91505092915050565b60007fff0000000000000000000000000000000000000000000000000000000000000082169050919050565b6124738161243e565b82525050565b600081519050919050565b600082825260208201905092915050565b60006124a082612479565b6124aa8185612484565b93506124ba81856020860161237b565b6124c3816123a5565b840191505092915050565b6000819050919050565b6124e1816124ce565b82525050565b6124f081612189565b82525050565b6124ff8161222c565b82525050565b600081519050919050565b600082825260208201905092915050565b6000819050602082019050919050565b61253a816124ce565b82525050565b600061254c8383612531565b60208301905092915050565b6000602082019050919050565b600061257082612505565b61257a8185612510565b935061258583612521565b8060005b838110156125b657815161259d8882612540565b97506125a883612558565b925050600181019050612589565b5085935050505092915050565b600060e0820190506125d8600083018a61246a565b81810360208301526125ea8189612495565b905081810360408301526125fe8188612495565b905061260d60608301876124d8565b61261a60808301866124e7565b61262760a08301856124f6565b81810360c08301526126398184612565565b905098975050505050505050565b600060208201905061265c60008301846124d8565b92915050565b61266b816124ce565b811461267657600080fd5b50565b60008135905061268881612662565b92915050565b600080604083850312156126a5576126a461215f565b5b60006126b3858286016121b2565b92505060206126c485828601612679565b9150509250929050565b60006020820190506126e360008301846124e7565b92915050565b6000806000806000606086880312156127055761270461215f565b5b6000612713888289016121b2565b955050602086013567ffffffffffffffff81111561273457612733612164565b5b612740888289016121d6565b9450945050604086013567ffffffffffffffff81111561276357612762612164565b5b61276f88828901612262565b92509250509295509295909350565b60008083601f840112612794576127936121c7565b5b8235905067ffffffffffffffff8111156127b1576127b06121cc565b5b6020830191508360208202830111156127cd576127cc6121d1565b5b9250929050565b6000806000604084860312156127ed576127ec61215f565b5b60006127fb868287016121b2565b935050602084013567ffffffffffffffff81111561281c5761281b612164565b5b6128288682870161277e565b92509250509250925092565b60008060006040848603121561284d5761284c61215f565b5b600061285b868287016121b2565b935050602084013567ffffffffffffffff81111561287c5761287b612164565b5b612888868287016121d6565b92509250509250925092565b6000819050919050565b60006128b96128b46128af846124ce565b612894565b6124ce565b9050919050565b6128c98161289e565b82525050565b60006020820190506128e460008301846128c0565b92915050565b60006040820190506128ff60008301856124f6565b61290c60208301846124f6565b9392505050565b7f454950373132207369676e657220616e64207472616e73616374696f6e20736960008201527f676e657220646f206e6f74206d61746368000000000000000000000000000000602082015250565b600061296f603183612484565b915061297a82612913565b604082019050919050565b6000602082019050818103600083015261299e81612962565b9050919050565b7f54686973206964656e74696669657220697320756e6b6e6f776e000000000000600082015250565b60006129db601a83612484565b91506129e6826129a5565b602082019050919050565b60006020820190508181036000830152612a0a816129ce565b9050919050565b7f596f75277265206e6f7420612072656769737472617200000000000000000000600082015250565b6000612a47601683612484565b9150612a5282612a11565b602082019050919050565b60006020820190508181036000830152612a7681612a3a565b9050919050565b7f546869732077616c6c657420697320616c72656164792072656769737465726560008201527f6400000000000000000000000000000000000000000000000000000000000000602082015250565b6000612ad9602183612484565b9150612ae482612a7d565b604082019050919050565b60006020820190508181036000830152612b0881612acc565b9050919050565b7f4e487b7100000000000000000000000000000000000000000000000000000000600052604160045260246000fd5b7f7265676973747261724964206e6565647320746f206265203e20300000000000600082015250565b6000612b74601b83612484565b9150612b7f82612b3e565b602082019050919050565b60006020820190508181036000830152612ba381612b67565b9050919050565b6000604082019050612bbf60008301856124e7565b612bcc60208301846124d8565b9392505050565b7f546869732077616c6c65742069736e2774207265676973746572656400000000600082015250565b6000612c09601c83612484565b9150612c1482612bd3565b602082019050919050565b60006020820190508181036000830152612c3881612bfc565b9050919050565b7f596f75277265206e6f74206d616e6167696e672074686973206964656e74697460008201527f7900000000000000000000000000000000000000000000000000000000000000602082015250565b6000612c9b602183612484565b9150612ca682612c3f565b604082019050919050565b60006020820190508181036000830152612cca81612c8e565b9050919050565b7f4e487b7100000000000000000000000000000000000000000000000000000000600052602260045260246000fd5b60006002820490506001821680612d1857607f821691505b602082108103612d2b57612d2a612cd1565b5b50919050565b7f4e487b7100000000000000000000000000000000000000000000000000000000600052603260045260246000fd5b600081905092915050565b6000612d7682612479565b612d808185612d60565b9350612d9081856020860161237b565b80840191505092915050565b6000612da88284612d6b565b915081905092915050565b600080fd5b600080fd5b600080fd5b60008083356001602003843603038112612ddf57612dde612db3565b5b80840192508235915067ffffffffffffffff821115612e0157612e00612db8565b5b602083019250600182023603831315612e1d57612e1c612dbd565b5b509250929050565b82818337600083830152505050565b6000612e408385612d60565b9350612e4d838584612e25565b82840190509392505050565b6000612e66828486612e34565b91508190509392505050565b7f77616c6c6574206973206e6f7420726567697374726172000000000000000000600082015250565b6000612ea8601783612484565b9150612eb382612e72565b602082019050919050565b60006020820190508181036000830152612ed781612e9b565b9050919050565b600081905092915050565b60008190508160005260206000209050919050565b60008154612f0b81612d00565b612f158186612ede565b94506001821660008114612f305760018114612f4557612f78565b60ff1983168652811515820286019350612f78565b612f4e85612ee9565b60005b83811015612f7057815481890152600182019150602081019050612f51565b838801955050505b50505092915050565b6000612f8d8284612efe565b915081905092915050565b7f4e487b7100000000000000000000000000000000000000000000000000000000600052601160045260246000fd5b6000612fd2826124ce565b9150612fdd836124ce565b9250828201905080821115612ff557612ff4612f98565b5b92915050565b7f546f6f206d616e79206964656e74696669657273000000000000000000000000600082015250565b6000613031601483612484565b915061303c82612ffb565b602082019050919050565b6000602082019050818103600083015261306081613024565b9050919050565b60008190508160005260206000209050919050565b60006020601f8301049050919050565b600082821b905092915050565b6000600883026130c97fffffffffffffffffffffffffffffffffffffffffffffffffffffffffffffffff8261308c565b6130d3868361308c565b95508019841693508086168417925050509392505050565b6000819050919050565b6130fe8361289e565b61311261310a826130eb565b848454613099565b825550505050565b600090565b61312761311a565b6131328184846130f5565b505050565b5b818110156131565761314b60008261311f565b600181019050613138565b5050565b601f82111561319b5761316c81613067565b6131758461307c565b81016020851015613184578190505b6131986131908561307c565b830182613137565b50505b505050565b600082821c905092915050565b60006131be600019846008026131a0565b1980831691505092915050565b60006131d783836131ad565b9150826002028217905092915050565b6131f082612479565b67ffffffffffffffff81111561320957613208612b0f565b5b6132138254612d00565b61321e82828561315a565b600060209050601f831160018114613251576000841561323f578287015190505b61324985826131cb565b8655506132b1565b601f19841661325f86613067565b60005b8281101561328757848901518255600182019150602085019450602081019050613262565b868310156132a457848901516132a0601f8916826131ad565b8355505b6001600288020188555050505b505050505050565b7f4e487b7100000000000000000000000000000000000000000000000000000000600052602160045260246000fd5b60006020820190506132fd60008301846124f6565b92915050565b600060408201905061331860008301856124d8565b61332560208301846124d8565b9392505050565b600080fd5b61333a826123a5565b810181811067ffffffffffffffff8211171561335957613358612b0f565b5b80604052505050565b600061336c612155565b90506133788282613331565b919050565b600067ffffffffffffffff82111561339857613397612b0f565b5b6133a1826123a5565b9050602081019050919050565b60006133c16133bc8461337d565b613362565b9050828152602081018484840111156133dd576133dc61332c565b5b6133e884828561237b565b509392505050565b600082601f830112613405576134046121c7565b5b81516134158482602086016133ae565b91505092915050565b6000602082840312156134345761343361215f565b5b600082015167ffffffffffffffff81111561345257613451612164565b5b61345e848285016133f0565b91505092915050565b60006134728261235f565b61347c8185612ede565b935061348c81856020860161237b565b80840191505092915050565b6000819050919050565b6134b36134ae8261243e565b613498565b82525050565b60006134c58285613467565b91506134d182846134a2565b6001820191508190509392505050565b6000815190506134f081612662565b92915050565b60006020828403121561350c5761350b61215f565b5b600061351a848285016134e1565b91505092915050565b600060a08201905061353860008301886124f6565b61354560208301876124f6565b61355260408301866124f6565b61355f60608301856124d8565b61356c60808301846124e7565b9695505050505050565b600060ff82169050919050565b61358c81613576565b82525050565b60006080820190506135a760008301876124f6565b6135b46020830186613583565b6135c160408301856124f6565b6135ce60608301846124f6565b95945050505050565b60006040820190506135ec60008301856124d8565b6135f9602083018461246a565b939250505056fea26469706673582212201e4ff874d9a9f45f1ce5242fdc7308d5e9be18820245492ea107691bacb6b07964736f6c63430008180033",
  "linkReferences": {},
  "deployedLinkReferences": {}
}