{
  "_format": "hh-sol-artifact-1",
  "contractName": "SimpleBid",
  "sourceName": "contracts/SimpleBid.sol",
  "abi": [
    {
      "inputs": [
        {
          "internalType": "contract EncryptedERC20",
          "name": "_tokenContract",
          "type": "address"
        }
      ],
      "stateMutability": "nonpayable",
      "type": "constructor"
    },
    {
      "inputs": [],
      "name": "InvalidShortString",
      "type": "error"
    },
    {
      "inputs": [
        {
          "internalType": "string",
          "name": "str",
          "type": "string"
        }
      ],
      "name": "StringTooLong",
      "type": "error"
    },
    {
      "anonymous": false,
      "inputs": [],
      "name": "EIP712DomainChanged",
      "type": "event"
    },
    {
      "inputs": [
        {
          "internalType": "bytes",
          "name": "encryptedValue",
          "type": "bytes"
        }
      ],
      "name": "bid_claim",
      "outputs": [],
      "stateMutability": "nonpayable",
      "type": "function"
    },
    {
      "inputs": [],
      "name": "contractOwner",
      "outputs": [
        {
          "internalType": "address",
          "name": "",
          "type": "address"
        }
      ],
      "stateMutability": "view",
      "type": "function"
    },
    {
      "inputs": [],
      "name": "eip712Domain",
      "outputs": [
        {
          "internalType": "bytes1",
          "name": "fields",
          "type": "bytes1"
        },
        {
          "internalType": "string",
          "name": "name",
          "type": "string"
        },
        {
          "internalType": "string",
          "name": "version",
          "type": "string"
        },
        {
          "internalType": "uint256",
          "name": "chainId",
          "type": "uint256"
        },
        {
          "internalType": "address",
          "name": "verifyingContract",
          "type": "address"
        },
        {
          "internalType": "bytes32",
          "name": "salt",
          "type": "bytes32"
        },
        {
          "internalType": "uint256[]",
          "name": "extensions",
          "type": "uint256[]"
        }
      ],
      "stateMutability": "view",
      "type": "function"
    },
    {
      "inputs": [],
      "name": "getMinBid",
      "outputs": [
        {
          "internalType": "euint64",
          "name": "",
          "type": "uint256"
        }
      ],
      "stateMutability": "view",
      "type": "function"
    },
    {
      "inputs": [
        {
          "internalType": "bytes",
          "name": "_atleastBid",
          "type": "bytes"
        }
      ],
      "name": "setMinBid",
      "outputs": [],
      "stateMutability": "nonpayable",
      "type": "function"
    },
    {
      "inputs": [],
      "name": "tokenContract",
      "outputs": [
        {
          "internalType": "contract EncryptedERC20",
          "name": "",
          "type": "address"
        }
      ],
      "stateMutability": "view",
      "type": "function"
    }
  ],
  "bytecode": "0x6101606040523480156200001257600080fd5b5060405162001b8a38038062001b8a833981810160405281019062000038919062000387565b6040518060400160405280601381526020017f417574686f72697a6174696f6e20746f6b656e000000000000000000000000008152506040518060400160405280600181526020017f3100000000000000000000000000000000000000000000000000000000000000815250620000ba600083620001dd60201b90919060201c565b6101208181525050620000d8600182620001dd60201b90919060201c565b6101408181525050818051906020012060e08181525050808051906020012061010081815250504660a08181525050620001176200023560201b60201c565b608081815250503073ffffffffffffffffffffffffffffffffffffffff1660c08173ffffffffffffffffffffffffffffffffffffffff1681525050505080600360006101000a81548173ffffffffffffffffffffffffffffffffffffffff021916908373ffffffffffffffffffffffffffffffffffffffff16021790555033600460006101000a81548173ffffffffffffffffffffffffffffffffffffffff021916908373ffffffffffffffffffffffffffffffffffffffff1602179055505062000909565b60006020835110156200020357620001fb836200029260201b60201c565b90506200022f565b826200021583620002ff60201b60201c565b600001908162000226919062000633565b5060ff60001b90505b92915050565b60007f8b73c3c69bb8fe3d512ecc4cf759cc79239f7b179b0ffacaa9a75d522b39400f60e0516101005146306040516020016200027795949392919062000757565b60405160208183030381529060405280519060200120905090565b600080829050601f81511115620002e257826040517f305a27a9000000000000000000000000000000000000000000000000000000008152600401620002d9919062000843565b60405180910390fd5b805181620002f09062000899565b60001c1760001b915050919050565b6000819050919050565b600080fd5b600073ffffffffffffffffffffffffffffffffffffffff82169050919050565b60006200033b826200030e565b9050919050565b60006200034f826200032e565b9050919050565b620003618162000342565b81146200036d57600080fd5b50565b600081519050620003818162000356565b92915050565b600060208284031215620003a0576200039f62000309565b5b6000620003b08482850162000370565b91505092915050565b600081519050919050565b7f4e487b7100000000000000000000000000000000000000000000000000000000600052604160045260246000fd5b7f4e487b7100000000000000000000000000000000000000000000000000000000600052602260045260246000fd5b600060028204905060018216806200043b57607f821691505b602082108103620004515762000450620003f3565b5b50919050565b60008190508160005260206000209050919050565b60006020601f8301049050919050565b600082821b905092915050565b600060088302620004bb7fffffffffffffffffffffffffffffffffffffffffffffffffffffffffffffffff826200047c565b620004c786836200047c565b95508019841693508086168417925050509392505050565b6000819050919050565b6000819050919050565b6000620005146200050e6200050884620004df565b620004e9565b620004df565b9050919050565b6000819050919050565b6200053083620004f3565b620005486200053f826200051b565b84845462000489565b825550505050565b600090565b6200055f62000550565b6200056c81848462000525565b505050565b5b8181101562000594576200058860008262000555565b60018101905062000572565b5050565b601f821115620005e357620005ad8162000457565b620005b8846200046c565b81016020851015620005c8578190505b620005e0620005d7856200046c565b83018262000571565b50505b505050565b600082821c905092915050565b60006200060860001984600802620005e8565b1980831691505092915050565b6000620006238383620005f5565b9150826002028217905092915050565b6200063e82620003b9565b67ffffffffffffffff8111156200065a5762000659620003c4565b5b62000666825462000422565b6200067382828562000598565b600060209050601f831160018114620006ab576000841562000696578287015190505b620006a2858262000615565b86555062000712565b601f198416620006bb8662000457565b60005b82811015620006e557848901518255600182019150602085019450602081019050620006be565b8683101562000705578489015162000701601f891682620005f5565b8355505b6001600288020188555050505b505050505050565b6000819050919050565b6200072f816200071a565b82525050565b6200074081620004df565b82525050565b62000751816200032e565b82525050565b600060a0820190506200076e600083018862000724565b6200077d602083018762000724565b6200078c604083018662000724565b6200079b606083018562000735565b620007aa608083018462000746565b9695505050505050565b600082825260208201905092915050565b60005b83811015620007e5578082015181840152602081019050620007c8565b60008484015250505050565b6000601f19601f8301169050919050565b60006200080f82620003b9565b6200081b8185620007b4565b93506200082d818560208601620007c5565b6200083881620007f1565b840191505092915050565b600060208201905081810360008301526200085f818462000802565b905092915050565b600081519050919050565b6000819050602082019050919050565b60006200089082516200071a565b80915050919050565b6000620008a68262000867565b82620008b28462000872565b9050620008bf8162000882565b925060208210156200090257620008fd7fffffffffffffffffffffffffffffffffffffffffffffffffffffffffffffffff836020036008026200047c565b831692505b5050919050565b60805160a05160c05160e0516101005161012051610140516112356200095560003960006104b80152600061047d015260005050600050506000505060005050600050506112356000f3fe608060405234801561001057600080fd5b50600436106100625760003560e01c806355a373d61461006757806384b0196e146100855780638cb39385146100a9578063ba368891146100c7578063bb40070b146100e3578063ce606ee0146100ff575b600080fd5b61006f61011d565b60405161007c9190610ade565b60405180910390f35b61008d610143565b6040516100a09796959493929190610cd5565b60405180910390f35b6100b16101ed565b6040516100be9190610d8a565b60405180910390f35b6100e160048036038101906100dc9190610e14565b6101f7565b005b6100fd60048036038101906100f89190610e14565b61039d565b005b61010761044e565b6040516101149190610e61565b60405180910390f35b600360009054906101000a900473ffffffffffffffffffffffffffffffffffffffff1681565b600060608060008060006060610157610474565b61015f6104af565b46306000801b600067ffffffffffffffff8111156101805761017f610e7c565b5b6040519080825280602002602001820160405280156101ae5781602001602082028036833780820191505090505b507f0f00000000000000000000000000000000000000000000000000000000000000959493929190965096509650965096509650965090919293949596565b6000600254905090565b600061024683838080601f016020809104026020016040519081016040528093929190818152602001838380828437600081840152601f19601f820116905080830192505050505050506104ea565b90506102536002546104fe565b1561035d5760006102666002548361050b565b9050600061027683600254610555565b9050600061028e83836102896000610569565b61057d565b9050600360009054906101000a900473ffffffffffffffffffffffffffffffffffffffff1673ffffffffffffffffffffffffffffffffffffffff166323b872dd600460009054906101000a900473ffffffffffffffffffffffffffffffffffffffff1633846040518463ffffffff1660e01b815260040161031193929190610eab565b6020604051808303816000875af1158015610330573d6000803e3d6000fd5b505050506040513d601f19601f820116820180604052508101906103549190610f1a565b50505050610398565b6040517f08c379a000000000000000000000000000000000000000000000000000000000815260040161038f90610f93565b60405180910390fd5b505050565b600460009054906101000a900473ffffffffffffffffffffffffffffffffffffffff1673ffffffffffffffffffffffffffffffffffffffff163373ffffffffffffffffffffffffffffffffffffffff16146103f757600080fd5b61044482828080601f016020809104026020016040519081016040528093929190818152602001838380828437600081840152601f19601f820116905080830192505050505050506104ea565b6002819055505050565b600460009054906101000a900473ffffffffffffffffffffffffffffffffffffffff1681565b60606104aa60007f000000000000000000000000000000000000000000000000000000000000000061059390919063ffffffff16565b905090565b60606104e560017f000000000000000000000000000000000000000000000000000000000000000061059390919063ffffffff16565b905090565b60006104f7826005610643565b9050919050565b6000808214159050919050565b6000610516836104fe565b610527576105246000610569565b92505b610530826104fe565b6105415761053e6000610569565b91505b61054d838360006106f1565b905092915050565b60006105618383610797565b905092915050565b60006105768260056107e1565b9050919050565b600061058a84848461086b565b90509392505050565b606060ff60001b83146105b0576105a9836108f5565b905061063d565b8180546105bc90610fe2565b80601f01602080910402602001604051908101604052809291908181526020018280546105e890610fe2565b80156106355780601f1061060a57610100808354040283529160200191610635565b820191906000526020600020905b81548152906001019060200180831161061857829003601f168201915b505050505090505b92915050565b600080838360f81b60405160200161065c92919061107b565b6040516020818303038152906040529050605d73ffffffffffffffffffffffffffffffffffffffff16634b252ec8826040518263ffffffff1660e01b81526004016106a791906110ed565b602060405180830381865afa1580156106c4573d6000803e3d6000fd5b505050506040513d601f19601f820116820180604052508101906106e8919061113b565b91505092915050565b600080821561070657600160f81b905061070e565b600060f81b90505b605d73ffffffffffffffffffffffffffffffffffffffff16639675211f8686846040518463ffffffff1660e01b815260040161074c93929190611168565b602060405180830381865afa158015610769573d6000803e3d6000fd5b505050506040513d601f19601f8201168201806040525081019061078d919061113b565b9150509392505050565b60006107a2836104fe565b6107b3576107b06000610569565b92505b6107bc826104fe565b6107cd576107ca6000610569565b91505b6107d983836000610969565b905092915050565b6000605d73ffffffffffffffffffffffffffffffffffffffff1663e71746b8848460f81b6040518363ffffffff1660e01b815260040161082292919061119f565b602060405180830381865afa15801561083f573d6000803e3d6000fd5b505050506040513d601f19601f82011682018060405250810190610863919061113b565b905092915050565b6000605d73ffffffffffffffffffffffffffffffffffffffff1663cb3b94078585856040518463ffffffff1660e01b81526004016108ab939291906111c8565b602060405180830381865afa1580156108c8573d6000803e3d6000fd5b505050506040513d601f19601f820116820180604052508101906108ec919061113b565b90509392505050565b6060600061090283610a0f565b90506000602067ffffffffffffffff81111561092157610920610e7c565b5b6040519080825280601f01601f1916602001820160405280156109535781602001600182028036833780820191505090505b5090508181528360208201528092505050919050565b600080821561097e57600160f81b9050610986565b600060f81b90505b605d73ffffffffffffffffffffffffffffffffffffffff16638c14cc218686846040518463ffffffff1660e01b81526004016109c493929190611168565b602060405180830381865afa1580156109e1573d6000803e3d6000fd5b505050506040513d601f19601f82011682018060405250810190610a05919061113b565b9150509392505050565b60008060ff8360001c169050601f811115610a56576040517fb3512b0c00000000000000000000000000000000000000000000000000000000815260040160405180910390fd5b80915050919050565b600073ffffffffffffffffffffffffffffffffffffffff82169050919050565b6000819050919050565b6000610aa4610a9f610a9a84610a5f565b610a7f565b610a5f565b9050919050565b6000610ab682610a89565b9050919050565b6000610ac882610aab565b9050919050565b610ad881610abd565b82525050565b6000602082019050610af36000830184610acf565b92915050565b60007fff0000000000000000000000000000000000000000000000000000000000000082169050919050565b610b2e81610af9565b82525050565b600081519050919050565b600082825260208201905092915050565b60005b83811015610b6e578082015181840152602081019050610b53565b60008484015250505050565b6000601f19601f8301169050919050565b6000610b9682610b34565b610ba08185610b3f565b9350610bb0818560208601610b50565b610bb981610b7a565b840191505092915050565b6000819050919050565b610bd781610bc4565b82525050565b6000610be882610a5f565b9050919050565b610bf881610bdd565b82525050565b6000819050919050565b610c1181610bfe565b82525050565b600081519050919050565b600082825260208201905092915050565b6000819050602082019050919050565b610c4c81610bc4565b82525050565b6000610c5e8383610c43565b60208301905092915050565b6000602082019050919050565b6000610c8282610c17565b610c8c8185610c22565b9350610c9783610c33565b8060005b83811015610cc8578151610caf8882610c52565b9750610cba83610c6a565b925050600181019050610c9b565b5085935050505092915050565b600060e082019050610cea600083018a610b25565b8181036020830152610cfc8189610b8b565b90508181036040830152610d108188610b8b565b9050610d1f6060830187610bce565b610d2c6080830186610bef565b610d3960a0830185610c08565b81810360c0830152610d4b8184610c77565b905098975050505050505050565b6000610d74610d6f610d6a84610bc4565b610a7f565b610bc4565b9050919050565b610d8481610d59565b82525050565b6000602082019050610d9f6000830184610d7b565b92915050565b600080fd5b600080fd5b600080fd5b600080fd5b600080fd5b60008083601f840112610dd457610dd3610daf565b5b8235905067ffffffffffffffff811115610df157610df0610db4565b5b602083019150836001820283011115610e0d57610e0c610db9565b5b9250929050565b60008060208385031215610e2b57610e2a610da5565b5b600083013567ffffffffffffffff811115610e4957610e48610daa565b5b610e5585828601610dbe565b92509250509250929050565b6000602082019050610e766000830184610bef565b92915050565b7f4e487b7100000000000000000000000000000000000000000000000000000000600052604160045260246000fd5b6000606082019050610ec06000830186610bef565b610ecd6020830185610bef565b610eda6040830184610d7b565b949350505050565b60008115159050919050565b610ef781610ee2565b8114610f0257600080fd5b50565b600081519050610f1481610eee565b92915050565b600060208284031215610f3057610f2f610da5565b5b6000610f3e84828501610f05565b91505092915050565b7f4974206973206e6f7420696e697469616c697a65642e00000000000000000000600082015250565b6000610f7d601683610b3f565b9150610f8882610f47565b602082019050919050565b60006020820190508181036000830152610fac81610f70565b9050919050565b7f4e487b7100000000000000000000000000000000000000000000000000000000600052602260045260246000fd5b60006002820490506001821680610ffa57607f821691505b60208210810361100d5761100c610fb3565b5b50919050565b600081519050919050565b600081905092915050565b600061103482611013565b61103e818561101e565b935061104e818560208601610b50565b80840191505092915050565b6000819050919050565b61107561107082610af9565b61105a565b82525050565b60006110878285611029565b91506110938284611064565b6001820191508190509392505050565b600082825260208201905092915050565b60006110bf82611013565b6110c981856110a3565b93506110d9818560208601610b50565b6110e281610b7a565b840191505092915050565b6000602082019050818103600083015261110781846110b4565b905092915050565b61111881610bc4565b811461112357600080fd5b50565b6000815190506111358161110f565b92915050565b60006020828403121561115157611150610da5565b5b600061115f84828501611126565b91505092915050565b600060608201905061117d6000830186610bce565b61118a6020830185610bce565b6111976040830184610b25565b949350505050565b60006040820190506111b46000830185610bce565b6111c16020830184610b25565b9392505050565b60006060820190506111dd6000830186610bce565b6111ea6020830185610bce565b6111f76040830184610bce565b94935050505056fea26469706673582212209143b73038ff554095167f7ac46dae9d3b79c9a79c574564b8d3820cc71d8cb964736f6c63430008180033",
  "linkReferences": {},
  "deployedLinkReferences": {}
}